:020000040002F8
:10000000C03300201501020027010200290102006F
:1000100000000000000000000000000000000000E0
:100020000000000000000000000000002B010200A2
:1000300000000000000000002D0102002F0102005E
:1000400031010200310102003101020031010200E0
:100050003101020000000000113902008D4702004A
:1000600031010200310102003101020031010200C0
:1000700031010200310102003101020031010200B0
:10008000310102007D2D0200310102003101020028
:100090009F2D0200C13C02006B35020031010200BD
:1000A00031010200310102000000000000000000E8
:1000B0000000000000000000000000000000000040
:1000C0000348854604F014FF0048004785090200F4
:1000D000C0330020401E00BF00BF00BF00BF00BFF4
:1000E00000BF00BF00BF00BF00BF00BF00BFF1D115
:1000F00070470000401E00BF00BF00BF00BF00BF30
:1001000000BF00BF00BF00BF00BF00BF00BFF1D1F4
:1001100070470000074802680F210A430260064842
:10012000804706480047FEE7FEE7FEE7FEE7FEE7FA
:10013000FEE7000024050040D7010200C1000200D4
:100140003D483E49086070473D48008CC0B20128D8
:1001500010D13B48808C0007000F0BD13848806AD3
:10016000F0210840402805D13548C06A084201D135
:10017000012070470020FCE73148008CC0B2012804
:1001800027D12F48808C0007000F22D12C48806A8D
:10019000F021084205D12A48C06A084201D1012055
:1001A00070472748806AF0210840102805D124486C
:1001B000C06A084201D10120F2E72148806AF0219B
:1001C0000840302805D11E48C06A084201D10120EC
:1001D000E6E70020E4E710B5FFF7CEFF002805D0E2
:1001E000184819494860C81318498861FFF7ACFFDF
:1001F000002802D00120164988601648C06A0821EC
:10020000084217D113484030C06A13494862114868
:100210004030006B88620F484030406BC8620D4828
:100220004030806B08630B484030C06BC905084301
:100230000949486310BD00000024F4000024002098
:10024000C00F00F0DFFF07C000050040006C004059
:1002500000060040800000100017004030B5130475
:100260008C0023430524240707252D0264198500EB
:10027000635130BD00F0A8FB04460D462A462146D6
:10028000FD48FFF7F7FF70B5002205210904FB4880
:10029000006802F04EFE044600BF2546002D05D042
:1002A00000BFF7A2D5212846FFF7E4FF00BF0022D8
:1002B0000121C903F548006802F03BFE044600BF77
:1002C0002546002D05D000BFEDA2D8212846FFF716
:1002D000D1FF00BF00220521C903ED48006802F0EC
:1002E00028FE044600BF2546002D05D000BFE4A22D
:1002F000DB212846FFF7BEFF00BF70BD70B5E548A3
:1003000073DF044600BF2546002D05D000BFDCA2E8
:10031000E6212846FFF7AEFF00BF70BD70B5DE498D
:100320000020CCDF044600BF2546002D05D000BFCD
:10033000D3A2F1212846FFF79DFF00BFD7490988C6
:1003400088B204F057F9FFF7D9FF70BD10B5044625
:1003500004F050FA10BD10B5044604F09BFB10BD2C
:1003600010B50446CE48007800280DD1CD4800884D
:10037000401CCC49088008460088782807DB00200C
:10038000088031DF00F020FB0020C649088010BD46
:10039000F8B500BF0020C44B05221146009002F0C2
:1003A00002FD054600BF2E46002E06D000BFB4A2B7
:1003B000FF2133313046FFF75DFF00BF00BFBB4A6E
:1003C0000121AE4802F06EFD044600BF2546002D17
:1003D00006D000BFAAA2FF2139312846FFF74AFF05
:1003E00000BFB34A0121A94802F05CFD044600BFEA
:1003F0002546002D06D000BFA1A2FF213E31284690
:10040000FFF738FF00BFAB4A0121A14802F04AFDC7
:10041000044600BF2546002D06D000BF98A2FF214C
:1004200043312846FFF726FF00BFF8BD3EB500BFA9
:100430006846007801090901491C00916846007866
:10044000F02188431030009000BF0E229AA1684628
:100450007CDF044600BF2546002D06D000BF88A2E1
:10046000FF2155312846FFF705FF00BF964878DF8A
:10047000044600BF2546002D06D000BF80A2FF2104
:1004800058312846FFF7F6FE00BF002077DF04460C
:1004900000BF2546002D06D000BF79A2FF215C31A8
:1004A0002846FFF7E7FE00BF002001900290FF21E1
:1004B0009131684681804900C18000210181FF217E
:1004C0009131418101A87ADF044600BF2546002D05
:1004D00006D000BF6AA2FF2166312846FFF7CAFE98
:1004E00000BF3EBD30B593B006210391774A07CADD
:1004F0006B4607C33C2104A804F0D5FB02200490FE
:10050000012168464175018303A907910321818573
:1005100069460C91002104A801F0DCFF044600BFED
:100520002546002D06D000BF55A2FF218731284661
:10053000FFF7A0FE00BF1421564804F0B4FB0020D2
:100540005449087048600872192080010882B4205C
:10055000488213B030BD30B591B004F014FA04F005
:100560008BF904F0ECFA402101A804F09CFB58A19F
:1005700001A802F015F853A109A802F011F800BF74
:1005800010A8007801090901491C10A80170007821
:10059000F0218843103010A9087000BF00BF10A8D8
:1005A000407800090001487010A84078F021884385
:1005B00010A9487000BF01A800F042FB044600BF2C
:1005C0002546002D06D000BF2DA2FF21AC312846C4
:1005D000FFF750FE00BF11B030BD70B5054628686A
:1005E000002811D13B213C48008876DF044600BF3B
:1005F0002646002E06D000BF21A2FF21C131304681
:10060000FFF738FE00BF00E000BF00BF70BD04462A
:1006100000BF1BA2FF21D1312046FFF72BFE704700
:1006200030B587B01C21684604F03DFB00200090E7
:100630000520C0030190029003216846017304F075
:1006400044FA41896846C18100210174234805901C
:1006500023480690684602F084FD044600BF254604
:10066000002D06D000BF06A2FF21F0312846FFF77B
:1006700001FE00BF07B030BDEFBEADDE202400207C
:100680002E2E5C6D61696E2E630000002424002014
:10069000282400208C280020BC4F02002C2400209D
:1006A0000624002030240020982500204D0302005D
:1006B0005703020061030200534330303220445597
:1006C000414C20563130000085040000C44F020028
:1006D000616C61746563680004240020DB0502001E
:1006E0000F06020010B5FFF719FE10BD10B5044645
:1006F000207802280ED16078032802D0072806D17E
:1007000002E003F0DFFF03E0FFF7ECFF00E000BFD3
:1007100000BF00BF00BF10BD70B504460025208893
:1007200013281AD004DC102807D0112840D10BE080
:10073000192825D052283BD128E00120A74908706C
:10074000A088A749088034E00020A4490870401E12
:10075000A349088003F0A4FF2BE000228521A048D4
:1007600000887FDF054600BF2E46002E06D000BF62
:100770009C4A232109013046FFF77CFD00BF18E0A9
:10078000A079002801D1FFF7B9FD12E0002211463F
:1007900093480088A9DF054600BF2E46002E05D0ED
:1007A00000BF904A90493046FFF764FD00BF00E06B
:1007B00000BF00BF70BD70B5044604F086F9054661
:1007C000214600F0C0FE04F0B4F80546214600F0D2
:1007D00062FB04F0CBF90546214600F0EFFD204610
:1007E00002F093FD2046FFF797FF70BD70B502F051
:1007F000D0FF044600BF2546002D06D000BF794A31
:10080000132149012846FFF735FD00BF70BD70B5C3
:1008100088B004460D46012D37D106A802F0E5FB4D
:10082000069804F0C7FA714A714B0191009004F0E8
:1008300059FA00226F4B0391029004F053FA05918C
:10084000049004F0C5FA86B2012C02D0042C14D115
:1008500009E0002068490880304604F00DF9304670
:1008600003F060FF10E0002063490880304604F088
:100870000AF9304603F05DFF06E000BF594A9F21A8
:1008800089002046FFF7F6FC00BF08B070BD70B5C8
:1008900000BF5A49012003F0A0F8044600BF2546D6
:1008A000002D06D000BF4F4A4F4946312846FFF77A
:1008B000E1FC00BF00BF032200210120FFF7CEFCB6
:1008C000032200210420FFF7C9FC00BF0023A4225B
:1008D00002214B4802F01AFF044600BF2546002DB6
:1008E00006D000BF3F4A40495A312846FFF7C2FCB4
:1008F00000BF00BF70BD70B500BF0023502241494A
:10090000082002F0E2FD054600BF2E46002E06D06C
:1009100000BF344A344964313046FFF7ABFC00BFB6
:1009200000BF394802F006FE044600BF2546002DF0
:1009300006D000BF2B4A2C4968312846FFF79AFCA5
:1009400000BF324802F0FFFD044600BF2546002DDF
:1009500006D000BF234A24496C312846FFF78AFCA1
:1009600000BF70BD70B53DDF044600BF2546002DB9
:1009700006D000BF1B4A5721C9002846FFF77AFC62
:1009800000BF70BD04F01DF9FFF702FDFFF77FFF08
:100990001F4800681F490860FFF7ADFFFFF746FDDD
:1009A000FFF7A0FDFFF7D7FDFFF739FEFFF738FE91
:1009B000FFF7B4FC03F01EFFFFF765FCFFF716FF1F
:1009C00000BFFFF7CFFFFCE7BFF34F8F124813497B
:1009D000C860BFF34F8F00BFFEE700000624002071
:1009E000042400208006020041020000F62BC88F7C
:1009F0002B07003F000090403024002028280020D2
:100A0000082400203C280020B7070200ED06020061
:100A1000801000102C2400200400FA0500ED00E0F6
:100A200070B504460D4600BF002D01D0012000E046
:100A300000200646002E05D100BFE6A23321FFF7B5
:100A400019FC00BF00BF00BF002C01D0012000E056
:100A500000200646002E05D100BFDEA23421FFF79C
:100A600009FC00BF00BF2878207029882879FF235F
:100A70001B02194000200206080A10436070287902
:100A80001B022968194000200204080C1043A070C2
:100A900029791B022868184000210902000E08432A
:100AA000E07028792071287A6071190CA8680840D4
:100AB000000AA0710902A8680840000CE07170BD2E
:100AC000F8B505460E46002400BF002E01D00120D7
:100AD00000E000200746002F05D100BFBDA24B213A
:100AE000FFF7C8FB00BF00BF00BF002D01D00120F1
:100AF00000E000200746002F05D100BFB5A24C2121
:100B0000FFF7B8FB00BF00BF32782046611CCCB2B3
:100B10002A542919708800F054F90019C4B229190F
:100B2000B08800F04EF90019C4B22919F08800F01D
:100B300048F90019C4B200BF072C01D1012000E020
:100B400000200746002F05D100BFA2A25421FFF7C5
:100B500091FB00BF00BFF8BDF0B58FB007460D4652
:100B600014461E4600BF002D01D0012000E00020E9
:100B700000900098002805D100BF96A26D21FFF7D4
:100B800079FB00BF00BF00BF002C01DD012000E0A9
:100B9000002000900098002805D100BF8DA26E2192
:100BA000FFF768FB00BF00BF1C2107A804F07BF81B
:100BB0006946087F02218843801C69460877002027
:100BC00008900A900B900C900D9000BF012108A88E
:100BD00081766846078700BF00200190317868461B
:100BE000017171784171807906218843811C6846C2
:100BF0008171807908218843014668468171807936
:100C00001021884301466846817180794108490076
:100C100068468171142102A804F045F80EA80290DC
:100C200001A80390684604820021418284820695CF
:100C300002AA07A974480088149BA2DF0FB0F0BD78
:100C40007FB5044600BF0121684681736F498181E9
:100C500000BF6D4A03A90120A0DF0546002D02D088
:100C6000284604B070BD208800280DDD684800903B
:100C7000228823463C3367486168FFF76DFF0546CD
:100C8000002D01D02846ECE7208900280EDD6248BF
:100C90000090228923463C335E48401FE168FFF7FD
:100CA0005BFF0546002D01D02846DAE7208A0028A0
:100CB0000EDD5A480090228A23463C335548001FD7
:100CC0006169FFF749FF0546002D01D02846C8E7B6
:100CD000208B00280EDD52480090228B23463C33A7
:100CE0004C48801EE169FFF737FF0546002D01D013
:100CF0002846B6E7208C00280EDD4A480090228C5A
:100D000023463C334348C01E616AFFF725FF054672
:100D1000002D01D02846A4E7208D00280EDD424892
:100D20000090228D23463C333A48401EE16AFFF78B
:100D300013FF0546002D01D0284692E7206B0028BE
:100D400013D001A8216BFFF76BFE384823463C33D4
:100D5000082201A900902F48801FFFF7FDFE0546DD
:100D6000002D01D028467CE700BF606B00280FD023
:100D70002F480090606B027923463C330168254878
:100D8000401CFFF7E9FE0546002D01D0284668E724
:100D9000A06B002813D001A8A16BFFF791FE254896
:100DA00023463C33072201A900901A482730FFF759
:100DB000D3FE0546002D01D0284652E700BF002093
:100DC0004FE702460A70FF200002104000124870F0
:100DD000022070472E2E5C2E2E5C2E2E5C2E2E5C5A
:100DE0002E2E5C536F757263655C626C655C626C21
:100DF000655F73657276696365735C626C655F6479
:100E000069732E6300000000322400200A180000DD
:100E100034240020292A00003C24002044240020FF
:100E20004C240020542400205C2400206424002052
:100E30006C240020742400208A884282704700229B
:100E4000D24342827047F8B504460E46207D002802
:100E500020D0B51D2988608981421AD1288B0228AB
:100E600017D12068002814D000BF00BFA97EEA7EF9
:100E7000120211430846C107C90F002902D0002001
:100E8000009001E0012000906946204622689047CA
:100E900000BF00BFF8BD70B505460C46208810287D
:100EA00004D0112807D050280FD109E02146284648
:100EB000FFF7C2FF0AE021462846FFF7C0FF05E022
:100EC00021462846FFF7BFFF00E000BF00BF70BD0E
:100ED000F0B591B004460D46207D002819D00020C1
:100EE000099000BF08A8007901090901491C08A858
:100EF00001710079F0218843103008A9087100BF02
:100F0000697B08A84171807906218843801C08A963
:100F100088711C210AA803F0C6FE08A8007A0221E5
:100F20008843811C08A80172007A10218843217D22
:100F3000002901D0012100E0002109011022114007
:100F4000084308A9087200200B900D900E90207D98
:100F5000002801D009A800E000200F900020109088
:100F600000BF0121684681737749818100BF00205D
:100F70000290A97B68460172E97B4172807A062162
:100F80008843811C68468172807A08218843014623
:100F900068468172807A10218843014668468172D2
:100FA000807A4108490068468172297B01911421A9
:100FB00004A803F078FE03A8049002A8059001217C
:100FC00068460183002141830121818301A80890A3
:100FD000A088A31D04AA0AA9A2DF0646002E02D0FB
:100FE000304611B0F0BDA86800284DD000BF0121E7
:100FF000684681735549818100BF00200290287C9A
:101000006946087200BF6846407A010909016846CE
:101010004172407AF02188436946487200BF6846B1
:10102000807A06218843811C68468172807A082173
:101030008843014668468172807A102188430146C0
:1010400068468172807A4108490068468172A968C1
:1010500001F088FA0746142104A803F024FE03A82F
:10106000049002A805906846078300214183018B04
:1010700081830890E08822460E3204A9A3DF064649
:10108000002E03D03046ACE70020E0810020A8E726
:10109000F8B504460D46286820600020C0436082F1
:1010A00028792075FF20207400BF012168468170D7
:1010B0002749018000BF221D69460120A0DF0646A6
:1010C000002E01D03046F8BD29462046FFF700FF2C
:1010D000F9E733B585B004460025207C6946097ED2
:1010E00088422FD0012104916846007E2074E08858
:1010F00006AB04AA0021A4DF0546002D02D0284635
:1011000007B030BD608A1349884219D0207D00287D
:1011100016D00020009001900290039001210491CC
:10112000E18868460180012181700021818004A846
:10113000029006A80390608A6946A6DF054600E093
:10114000082500BF2846DBE7192A0000082900000F
:101150000F180000FFFF00008A888282704700227B
:10116000D2438282704770B504460E46B51D298869
:10117000208A814213D1288B022810D100BF00BFE2
:10118000A97EEA7E120211430846C107C90F002951
:1011900002D00120A0750FE00020A0750CE0288887
:1011A000A188884208D1A069002805D02A8B294649
:1011B0001A312046A369984770BD30B58FB00446F8
:1011C0000D460020079000BF6846007F0109090115
:1011D000491C68460177007FF0218843103069463A
:1011E000087700BF00BF6846407F01090901491C1C
:1011F00068464177407FF021884310306946487740
:1012000000BF6846807F06218843811C684681773D
:101210001C2108A803F047FD08A800781021884386
:10122000411808A80170002009900B900C9007A8A5
:101230000D9000200E9021786846817103218180F5
:101240000020009000BF6846007801090901491C90
:10125000684601700078F0218843103069460870B4
:1012600000BF00BF6846407801090901491C684673
:1012700041704078F021884310306946487000BFC3
:101280006846807806218843811C68468170807892
:101290000821884301466846817080781021884380
:1012A000014668468170807841084900491C6846BB
:1012B0008170142102A803F0F6FC01A80290684690
:1012C00003900121018200214182142181826088E2
:1012D00023460C3302AA08A9A2DF0FB030BD30B5F7
:1012E0008FB004460D461C2108A803F0DCFC08A8BA
:1012F000007808218843411808A80170007804216B
:101300008843011D08A80170002009900B900C90E3
:101310000D900E9021786846817202210181002093
:10132000019000BF6846007901090901491C68461F
:1013300001710079F021884310306946087100BFBF
:1013400000BF6846407901090901491C684641719E
:101350004079F021884310306946487100BF6846E3
:10136000807906218843811C684681718079082133
:10137000884301466846817180791021884301467F
:1013800068468171807941084900491C684681712D
:10139000142103A803F087FC02A8039001A804907D
:1013A0000121684681820021C18214210183608865
:1013B000231D03AA08A9A2DF0FB030BD70B50546F2
:1013C0000C46002D01D0002C00D170BD20881028C3
:1013D00004D0112807D050280FD109E02146284613
:1013E000FFF7BAFE0AE021462846FFF7B8FE05E0FF
:1013F00021462846FFF7B7FE00E000BF00BF00BF50
:10140000E3E770B586B004460E46334B0FCB01AD13
:101410000FC5002C01D0002E02D10E2006B070BDE9
:101420000020C043A0823068A0610020A075214642
:1014300001A862DF0546002D01D02846EEE721789D
:101440006846817501218182A21C05A90120A0DFC7
:101450000546002D01D02846E0E731462046FFF73B
:10146000ACFE0546002D01D02846D7E73146204680
:10147000FFF735FF0546002D01D02846CEE70020B6
:10148000CCE737B584B004460D46002C02D10E20BF
:1014900007B030BDA08A1149884202D0A07D002843
:1014A00001D10820F4E76846008B142801DD0720ED
:1014B000EEE700200090019002900390A189684619
:1014C0000180039506A80290012168468170A08AD8
:1014D0006946A6DFDCE70000D04F0200FFFF0000F6
:1014E0008A88C28370470022D243C283704738B5CE
:1014F00005460C46208B022817D12868002814D0F6
:1015000000BF00BFA17EE27E120211430846C10760
:10151000C90F002902D00020009001E001200090B6
:10152000694628462A68904700BF38BD70B5044612
:101530000D46AE1D31886089814203D13146204677
:10154000FFF7D5FF70BD70B505460C46214628460D
:10155000243000F0ACFC2088102804D0112807D0DB
:1015600050280FD109E021462846FFF7B9FF0AE0CD
:1015700021462846FFF7B7FF05E021462846FFF73A
:10158000D5FF00E000BF00BF70BDF7B50D461646A1
:10159000002701240098008C20401CD028780028C7
:1015A00019D001200743311968680870FF22120220
:1015B0000240120A4A70FF2212040240120C8A7082
:1015C000020ECA7004221019C4B23119288900F021
:1015D000F3F90019C4B20098008C0221084210D01F
:1015E000687800280DD0022007433119688900F07F
:1015F000E3F90019C4B23119A88900F0DDF9001926
:10160000C4B237702046FEBD30B599B004460D46D1
:101610000020119000BF10A8007901090901491CA0
:1016200010A801710079F0218843103010A90871C9
:1016300000BF297910A84171807906218843811C57
:1016400010A881711C2112A803F02DFB10A8007AAC
:1016500010218843103010A90872002013901590B3
:10166000169011A817900020189000BF012108A81B
:101670008173D6496846818500BF00200A9000BF6B
:1016800008A8007A0109090108A80172007AF0216E
:10169000884308A9087200BF00BF08A8407A010962
:1016A000090108A84172407AF021884308A94872CC
:1016B00000BF08A8807A06218843811C08A881728F
:1016C000807A08218843014608A88172807A102117
:1016D0008843014608A88172807A41084900491C64
:1016E00008A8817214210CA803F0DDFA0BA80C9055
:1016F0000AA80D9001AA06A92046FFF746FF014659
:1017000068460187002141871421818701A8109034
:10171000A088A31D0CAA12A9A2DF19B030BD70B514
:1017200090B004460D461C2109A803F0BCFA08A994
:10173000087902218843801C08A9087100200A90BA
:101740000C900D900E900F9000BF012168468173A0
:101750009E49491C818100BF00200290A87A6946F9
:10176000087200BF6846407A010909016846417263
:10177000407AF02188436946487200BF6846807A03
:1017800006218843811C68468172807A082188433B
:10179000014668468172807A102188430146684676
:1017A0008172807A4108490068468172142104A838
:1017B00003F079FAA88901A900F0FEF8064603A80B
:1017C000049002A805906846068300214183868321
:1017D00001A80890A08823460E3304AA09A9A2DF15
:1017E00010B070BD70B590B005460C461C2109A81C
:1017F00003F059FA08A9087902218843801C08A936
:10180000087100200A900C900D900E900F9000BF70
:101810000121684681736D49891C818100BF0020C8
:1018200002902520005D6946087200BF6846407A34
:101830000109090168464172407AF02188436946EE
:10184000487200BF6846807A06218843811C68463A
:101850008172807A08218843014668468172807AC5
:1018600010218843014668468172807A4008400012
:1018700069468872142104A803F015FA0126206A2B
:10188000002802D0206A0078019003A8049002A8E2
:1018900005906846068300214183868301A808904D
:1018A000A8882B46163304AA09A9A2DF10B070BD80
:1018B00070B588B005460C46206828600020C043FB
:1018C000E883A089288400BF0121684681774049C8
:1018D000818300BF2A1D07A90120A0DF0646002E34
:1018E00002D0304608B070BD21462846FFF78CFE76
:1018F0000646002E01D03046F4E721462846FFF781
:101900000EFF0646002E01D03046EBE7206A002885
:1019100008D021462846FFF765FF0646002E01D075
:101920003046DFE7E0690690217E68460175A17BBD
:10193000C17120690390606904900322E11D01A830
:1019400003F098F9E98A6846C182A988018101A952
:101950002846243000F040F8C4E7F0B58BB00446C8
:101960000F46E08B1B49884222D006AA3946204602
:10197000FFF70BFE064605960020019002900390AB
:101980000490E188684681800121817100210181F4
:1019900005A8039006A80490E08B01A9A6DF0546E0
:1019A000002D04D16846808AB04200D00C2500E0AA
:1019B000082528460BB0F0BD02460A70FF20000241
:1019C0001040001248700220704700005B2A00009F
:1019D00016180000FFFF000030B58FB004460D461A
:1019E0000020C043A08100206065297C482001556B
:1019F000287C00280AD0E868002807D04820005D2D
:101A0000820020461030E96803F034F9A88860802D
:101A1000A868E064E8782070698A502001536869FA
:101A2000A0650020079000BF6846007F01090901FA
:101A3000491C68460177007FF021884310306946D1
:101A4000087700BF297868464177807F0621884360
:101A5000811C684681771C2108A803F024F908A896
:101A6000007820218843411808A8017000780821D7
:101A70008843083008A90870002009900B900C904A
:101A800007A80D9000200E9000BF012168468171CB
:101A9000FA49818000BF0020009000BF68460078AE
:101AA00001090901684601700078F0218843694600
:101AB000087000BFA9786846417080780621884385
:101AC000811C6846817080780821884301466846F9
:101AD0008170807810218843411868468170807831
:101AE00041084900491C68468170142102A803F08E
:101AF000DAF801A802906846039000210182418231
:101B000013218182002006906088231D02AA08A963
:101B1000A2DF0FB030BD70B503460C460021012C8A
:101B200001DA072070BD0846491C185C1060106877
:101B300001280AD0022804D0032803D0042811D198
:101B400012E011E0585C90600EE058180578467875
:101B500036023543867836043543C6783606354333
:101B6000556001E00720DDE700BF0020DAE7F0B5AF
:101B70000346002010260446401C16550E780446E5
:101B8000401C16550E790446401C16554C68012C15
:101B900013D10C68042C0ED1002407E0A6001D46CA
:101BA0001035AE5D0546401C5655641C4825ED5C5D
:101BB000A542F3DC00E000BF00BFF0BD10B5024657
:101BC0000B46002108E08C00104610300059984266
:101BD00001D1012010BD491C4820805C8842F2DC04
:101BE0000020F7E77CB504460220009000262089FB
:101BF00001AB6A460021A5DF0546002D05D0A06D8A
:101C0000002802D02846A16D884700BF00BF6A4661
:101C10001179527912021143084602210140490804
:101C20000E4630467CBD30B585B00446606D022856
:101C300036D16020015D0491002000900190029057
:101C40000390A18868460180022181700021818073
:101C500004A80290204661300390A0896946A6DF5F
:101C60000546002D06D16020005D6946098A88423C
:101C700000D00C25002D03D08148281806D102E0A1
:101C8000032060650BE00220606508E000206065CD
:101C9000A06D002802D02846A16D884700BF00BF74
:101CA00005B030BD70B59CB004460E4602216846B2
:101CB0000175002101832046FFF794FF00280AD018
:101CC000606D002802D16946088308E0FF2081305A
:101CD0006946088303E0FF20823069460883A089B3
:101CE00005A9A8DF0546002D05D0A06D002802D06B
:101CF0002846A16D88476846008B002801D01CB09B
:101D000070BD022060650A90317E19AA30461A30F3
:101D1000FFF701FF0546002D04D019980990022015
:101D20000A9081E0199809901998012847D0022853
:101D30005BD003280BD0042872D12078C007C00FD5
:101D400002D001200A9001E002200A906BE0207886
:101D5000C007C00F30D020461B99FFF72FFF002887
:101D600027D01B98C1B202910121019101200A9054
:101D7000002003901B980490E06C002804D003A975
:101D80002046E26C90470A900A98012810D1502111
:101D9000085B02AB01AA0021A4DF0546002D07D095
:101DA000A06D002802D02846A16D884704200A9023
:101DB00004E003200A9001E002200A9033E020783A
:101DC0000221084002280DD101200A9003901A98A0
:101DD0000490E06C002807D003A92046E26C9047ED
:101DE0000A9001E002200A901DE0207804210840BA
:101DF000042811D10120606502200390E06C0028C6
:101E00000CD003A92046E26C90470A900A9801285A
:101E100004D00220606501E002200A9003E0FFE7A1
:101E200002200A9000BF00BF2246613209A9204665
:101E3000FFF79DFEC1B260200155606D022802D1FE
:101E40002046FFF7F0FE00BF59E770B505460E4685
:101E5000B41C2078022807D16088A988884203D161
:101E6000A11C2846FFF71EFF70BD10B50446606D2B
:101E7000022802D12046FFF7D6FE10BD552A0000E9
:101E8000FDCFFFFF8A8882810022426570470022D1
:101E9000D2438281002242657047CA8883889A4271
:101EA00004D1426D032A01D100224265704770B50A
:101EB00005460C46208811280FD004DC01281BD0D1
:101EC00010281DD104E051280CD0532818D10EE061
:101ED00021462846FFF7D6FF13E021462846FFF7A4
:101EE000D6FF0EE0211D2846FFF7AFFF09E021468F
:101EF0002846FFF7D2FF04E02846FFF7B6FF00E0D0
:101F000000BF00BF70BD70B59AB004460D460026F4
:101F1000606D012802D008201AB070BD0B95022018
:101F20000A9005AA0AA92046FFF721FE81B2049172
:101F300000200090019002900390A18868460180E3
:101F4000022181700021818004A8029005A80390DD
:101F5000A0896946A6DF0646002E00D1606530469E
:101F6000DAE70000F7B584B004460F460698067815
:101F7000B01C1F2803DC2079801C1F2802DD0C20E8
:101F800007B0F0BD1F20801B801E85B20295B11CDA
:101F9000781802A97DDF03900398002801D00398E8
:101FA000EEE72068022808D168460089A84204DCD0
:101FB00009200190684605890BE0082001902079EE
:101FC000002804D02079A84201DC257901E0684688
:101FD0000589681CC2B23046711CCEB23A543046F4
:101FE000721CD6B20199395406980178A81C0818B9
:101FF000C1B2069801700020C2E7F8B505460C464C
:102000002078001D1F2801DD0C20F8BD684679DF0F
:102010000646002E01D03046F7E703212278501CF7
:102020002070A95419212278501C2070A9542078BE
:1020300041196846008800F08AFA2178401820701B
:102040000020E2E7F8B505460F4616461C466868CC
:10205000002801D10720F8BD2078801C298840186D
:102060001F2801DD0C20F6E72878401CC1B2227839
:10207000501C2070B1542178481C207077542A8855
:1020800023789819696802F0F5FD207829784018BE
:1020900020700020DFE730B503461078C01C1F28F1
:1020A00001DD0C2030BD02241578681C10704C55E1
:1020B0000A241578681C10704C551578681C10702F
:1020C0004B550020EEE7FFB587B006461D46109C35
:1020D0000020069020780590002747E0B90070683E
:1020E00041180A886846028149884181002203A973
:1020F00002A864DF04900498002802D004980BB072
:10210000F0BD6846017B099881422ED106980028CF
:1021100001D0002000E00220019020786946097B70
:102120004118019808181F2801DD0C20E7E70698E0
:10213000002809D12078401C20702278511C089872
:102140002170A854012006902078421903A902A802
:1021500064DF04900498002801D00498CFE7207829
:102160006946097B4018207000BF7F1C3088B84248
:10217000B4DC0698002806D021780598401C081A7F
:10218000C1B2059829540020B9E7FFB581B00746D0
:1021900015460A9E009602223846049B0299FFF7D4
:1021A00092FF0446002C02D0204605B0F0BD0096F8
:1021B000102229463846049BFFF785FF0446002C71
:1021C00001D02046F1E70020EFE701460888062805
:1021D00008DB08881922D201904205DD0888E04A10
:1021E000904201D0072070474888062808DB4888BD
:1021F0001922D201904205DD4888D94A904201D087
:102200000720F0E70888D64A904208D048889042D4
:1022100005D008884A88904201DD0720E3E70020C6
:10222000E1E7F8B506460D4614462078801D1F28C4
:1022300001D90C20F8BD3046FFF7C7FF0746002F35
:1022400001D03846F6E705212278501C2070A954A9
:1022500012212278501C2070A954227851193088FC
:1022600000F075F921784018207022785119708893
:1022700000F06DF92178401820700020DAE7F8B5F9
:1022800005460E4614462879801CC7B22078801C6B
:10229000C0191F2801DD0C20F8BD781CC1B22278BE
:1022A000501C2070B154FF212278501C2070B15472
:1022B00022789119288800F04AF921784018207076
:1022C000A88800280EDDA868002801D10720E3E7D0
:1022D000AA8823789819A96802F0CCFC207829797B
:1022E000401820700020D7E7FEB507460E4614467A
:1022F000786B002801D10720FEBD0020019032E05C
:10230000796B0C22019850430D182879801CC0B2BB
:1023100000900098401CC1B22278501C2070B1542B
:1023200016212278501C2070B154227891192888E7
:1023300000F00DF9217840182070A88800280EDDE3
:10234000A868002801D10720D6E7AA882378981921
:10235000A96802F08FFC2078297940182070019834
:10236000401CC0B201903820C15D01988142C7DC99
:102370000020C1E7F8B504460F46164600250020A8
:1023800030702068002809D0324639462046FFF7D1
:10239000E9FD0546002D01D02846F8BD60790028EA
:1023A00008D031463846FFF728FE0546002D01D0FB
:1023B0002846F2E7208900280BDD33463A46012102
:1023C00020460830FFF73EFE0546002D01D0284686
:1023D000E3E7206900280BD0002021690856324627
:1023E0003946FFF758FE0546002D01D02846D4E7B0
:1023F000A08A00280CDD3B4606220221204614302C
:102400000096FFF7C2FE0546002D01D02846C4E71E
:10241000A08B00280CDD3B460722032120461C3000
:102420000096FFF7B2FE0546002D01D02846B4E71E
:10243000A08C00280CDD3B461522142120462430B8
:102440000096FFF7A2FE0546002D01D02846A4E71E
:10245000E06A002809D032463946E06AFFF7E1FE1B
:102460000546002D01D0284697E7206B002809D0AB
:1024700032463946206BFFF702FF0546002D01D09A
:1024800028468AE73820005D002809DD32463946B3
:102490002046FFF729FF0546002D01D028467CE79E
:1024A00028467AE701460889002807D0C86800282E
:1024B00004D0C86800780422104201D10720704778
:1024C0000020FCE701460889002801DD072070474D
:1024D0000020FCE7F3B593B00D4600211291119155
:1024E0001398002814D01398FFF7DCFF0446002C43
:1024F00002D0204615B0F0BD12AA09A91398FFF723
:1025000039FF0446002C01D02046F3E709AE00E075
:102510000026002D13D02846FFF7D4FF0446002CD8
:1025200001D02046E6E711AA01A92846FFF722FFBD
:102530000446002C01D02046DCE701AF00E0002774
:1025400010A803793A46017A304672DFD2E7024694
:102550000A70FF20000210400012487002207047ED
:10256000FFFF0000F8B505460E46002432782146EC
:10257000641C6A5472782146641C6A5400BF022CA1
:1025800001D1012000E000200746002F05D100BF47
:1025900008A22021FDF76EFE00BF00BF2046F8BD57
:1025A00070B504460D46284602F088FB2080656021
:1025B00070BD00002E2E5C2E2E5C2E2E5C2E2E5C0E
:1025C0002E2E5C536F757263655C626C655C626C29
:1025D000655F73657276696365735C626C655F7372
:1025E00072765F636F6D6D6F6E2E630010B500289D
:1025F00019DAFE4A03071B0F083B9B089B00D258C1
:102600008307DC0EFF23A3409A438B071B0E84072E
:10261000E40EA3401A43F54B0407240F083CA4081A
:10262000A4001A5118E0F24A03231B02D2188308AF
:102630009B00D2588307DC0EFF23A3409A438B07ED
:102640001B0E8407E40EA3401A43E94B0324240223
:102650001B198408A4001A5110BD10B50446E548A2
:10266000846003211120FFF7C1FF10BD10B50120C8
:102670000004E1494860E04940394860112000F019
:10268000D4FC112000F0C3FC0120DC4908602F209D
:10269000FDF720FD10BD10B5112001218140D44A65
:1026A0008032116000BF01200004D3498860D24904
:1026B000403988600120D14948602F20FDF70AFD8C
:1026C00010BDF0B5024628205043CD4B1B68C11801
:1026D000CC480068401C02D1CA48026057E0C94893
:1026E0008B68006828246043C54C24680019806802
:1026F000834217D8C348006828235843C04B1B683F
:10270000C01880688B68C31ABE48006828246043DC
:10271000BB4C246800198360BA4800684862B94815
:10272000026034E08B68B74D2C6828680DE02825DE
:102730004543B34E3668AD19AD685B1B044628258A
:102740004543AF4E3668AD19686A451C07D0282549
:102750004543AB4E3668AD19AD689D42E7D3451C85
:102760000CD028254543A64E3668AD19AD68EE1A43
:1027700028254543A24F3F68ED19AE608B60486243
:10278000282565439E4E3668AD196A6200BFF0BDCC
:1027900070B502469B4C2168084609E0904200D182
:1027A00008E0014628244443954D2D686419606A69
:1027B000441CF3D100BF441C00D170BD814209D13B
:1027C000904C246828256C438D4D2D686419646AEB
:1027D0008C4D2C6028244443894D2D686419A368CE
:1027E00028244443864D2D686419656A28244C4387
:1027F000834E3668A419656228244C43804D2D68A9
:102800006419606A441C0CD0282444437C4D2D6814
:102810006419A468E51828244443794E3668A4193D
:10282000A56000BFC9E710B5112000F0F7FB10BD8F
:1028300010B5142000F0F2FB10BD70B504467248CC
:102840000068002813D0704A216AE0691268904736
:10285000054600BF2E46002E07D000BF6BA2FF2109
:1028600055313046FDF706FD00BF00BF02E0E169CB
:10287000206A884770BDF8B562480068401C39D0AE
:10288000002700F004FC04466C480168204600F074
:1028900001FC06465B48056811E02820684358495A
:1028A00009684418A068B04200D90AE0A068361A46
:1028B000A068C719656A2046FFF7BFFF00BF681C04
:1028C000EBD100BF5E4800785E490978884209D1A3
:1028D0005C480078401CC0B25A490870022801D1F7
:1028E0000020087057480078800057490F50FFF7C4
:1028F0009FFF00BFF8BD014651480078514A127849
:1029000090421DD04E480078401C4D4A1070104631
:102910000078022801D1002010704948007880001A
:10292000494A10580860454A086812688018434AA6
:102930001060104600680002000A10600120704715
:102940000020086000BFFAE7FEB52E48006801903D
:102950003E48007800903FE00098C0003C4909687C
:102960004418257834E01820684361680F18681C03
:10297000C5B2A078A84200D100253868022802D04C
:10298000032822D10EE02821786848431C490968B1
:102990004618307E002804D07868FFF7F9FE002042
:1029A000307613E00CE01749096828225143144A95
:1029B0001268881800210176124A416A116000BF2E
:1029C00010480068401CEED100E000BF00BF00BF0F
:1029D0006078A842C7D100BF0098411EC9B20091DB
:1029E0000028B9D107480168019833E01CED00E0E8
:1029F00000E100E0001501404013014000100140DB
:102A00007C240020882400209C2400202E2E5C2E74
:102A10002E5C2E2E5C2E2E5C2E2E5C536F757263F8
:102A2000655C6170705F636F6D6D6F6E5C6170701F
:102A30005F74696D65722E63000000008C240020B5
:102A40009824002099240020902400208124002034
:102A500084240020814201D00120FEBD0020FCE73B
:102A6000F0B50346002426E0FE4E366828277E4354
:102A7000FD4F3F68F01986689E4203D98668F61AB2
:102A800086601CE086689B1B866834190026866079
:102A90000676F44E3568F34F466A3E604669002E6E
:102AA00008D00E193602360AC660466906611668F5
:102AB0004662156000BFEB480068401CD4D100BFDF
:102AC000F0BDFEB50746E74800680290E748007889
:102AD000019069E00198C000E549096845185CE08B
:102AE000781C07D03E4628207043DF490968441807
:102AF000676A23E02978182359436A6850182978AF
:102B0000491C29702978AA78914201D100212970A5
:102B1000466828217143D44A12688C18016801293B
:102B200002D1217E002900D037E08168E160C168D0
:102B30002161016961614169216200BFCD49E0689D
:102B40000968401A0002000ACB49884208D2C949E4
:102B5000E068096800F09EFA21694018A06011E061
:102B6000C448E168006800F095FA00902169009877
:102B7000814204D921690098081AA06001E0002070
:102B8000A06000BF0020E060206101202076801E50
:102B900060623046FFF795FD00BF781CA0D1287811
:102BA000697888429CD100BF0198411EC9B2019149
:102BB00000288FD1AB4801680298814201D00120E2
:102BC000FEBD0020FCE7FEB50546A6480068401C97
:102BD00034D0A448006828214843A3490968401814
:102BE000866800F054FA0290A248046821460298D0
:102BF00000F050FAC01C0190681C01D1FFF736FDAF
:102C00000198B04201D2304600E001980419240234
:102C1000240A20469949086000BF00F038FA009065
:102C20000299009800F036FAC71C2046029900F07D
:102C300031FA874201D9FFF7F6FD01E0FFF72BFDDE
:102C4000FEBDFEB50020C04301908A480468854857
:102C500007686846FFF74FFE0546FFF775FE064614
:102C6000002D05D001AA21460098FFF7F9FE0126A4
:102C70000198FFF726FF002800D00126002E02D081
:102C80003846FFF7A0FFFEBD4170704770B50246A1
:102C90000B465078411C9078884200D10021107872
:102CA000884201D1002070BD196050781826704309
:102CB00055682C182046F6E7FFB581B005460E464C
:102CC0001746E9006A4A126888186946FFF7DEFF6E
:102CD0000446002C02D1042005B0F0BD0120206084
:102CE000666000F0D4F9A060E760049820610A985B
:102CF0006061E9005E4A126888180099FFF7C4FF16
:102D0000FFF796FD0020E7E7F8B504460E46E10020
:102D1000574A126888186946FFF7B8FF0546002D24
:102D200001D10420F8BD022028606E60E100504A05
:102D3000126888180099FFF7A7FFFFF779FD0020B8
:102D4000F0E738B50446E100494A12688818694638
:102D5000FFF79CFF0546002D01D1042038BD03205C
:102D60002860001F6860E100414A126888180099D5
:102D7000FFF78AFFFFF75CFD0020EFE710B50020AA
:102D80003F49086000213E4841608160C1600020E9
:102D90003B49403908604860FFF76DFD10BD10B534
:102DA000FFF74FFF10BDFFB581B00E4617461C461A
:102DB00020468107890F01D1012100E0002100296F
:102DC00002D1072005B0F0BD002C01D10720F9E7A2
:102DD000FFF761FC2B490A9808602B4806702248CF
:102DE000046000250CE00021282068431E4A126878
:102DF0001150282068431C4A1268801801766D1C07
:102E0000B542F0DB282070430419032017490870ED
:102E100017480460183400250CE0E900144A1268D1
:102E2000881800210170417087704460182179432F
:102E30000C196D1C032DF0DB0020C043094908600C
:102E400000201249087012490870142000F0EDF8B3
:102E500003211420FFF7CAFB142000F0D8F80198D2
:102E600018E00000882400207C2400208124002019
:102E7000842400208C240020FFFF7F0040150140A7
:102E8000401101409C240020802400209824002030
:102E900099240020FFF7E1FB00F0F9F88049086071
:102EA00000208FE770B503460C467E480068002876
:102EB00001D1082070BD002A01D10720FAE7002BBC
:102EC00001D10720F6E700211CE028204843754D7A
:102ED0002D682858002814D1012528204843714E18
:102EE00036683550282048436E4D2D68401944609F
:102EF000282048436B4D2D684019C261196000209D
:102F0000D8E7491C684800788142DEDB0420D1E71D
:102F100010B500F092F8012802D0032804D101E096
:102F2000002403E0012401E0022400BF00BF20468A
:102F300010BDFEB504460D4616465A4800680028E6
:102F400001D10820FEBD58480078844201D2052DE9
:102F500001D20720F6E72820604352490968085843
:102F6000012801D00820EDE7282060434D49096879
:102F700040184068012801D1284600E0002007469B
:102F8000FFF7C6FF3B462A46214600960190FFF711
:102F900093FED7E770B5044642480068002801D187
:102FA000082070BD40480078844201D30720F8E72C
:102FB000282060433B4909680858012801D00820AF
:102FC000EFE7FFF7A5FF05462146FFF79DFEE8E77F
:102FD00010B534480068002801D1082010BDFFF763
:102FE00097FF0446FFF7ADFEF8E710B5044600F082
:102FF0004EF82060002010BD70B505460E46144600
:103000003146284600F046F82060002070BDC20618
:10301000D20E01219140254A11607047C206D20E9E
:1030200001219140224A11607047C206D20E01214F
:1030300091401F4A80321160704710B51D484068AA
:10304000C105C90D002920D00A46103A10460028B3
:103050000DDA184B1C330407240F083CA408A40005
:103060001B598407E40EE3401B069B0F0BE00F4B3C
:10307000032424021B198408A4001B598407E40EAE
:10308000E3401B069B0FD8B210BD0420FCE70A48A2
:10309000406870470246501A0002000A704700005C
:1030A0008C2400207C2400208024002000E100E00B
:1030B00000E200E000ED00E0001501400146488814
:1030C000B74A1288904206DB4888B54A5288904237
:1030D00001DC012070470020FCE738B50546B14807
:1030E0000088B14988423BD0B0480078401CAF49C5
:1030F0000870AF48007B097888420FDBA849A948CF
:10310000008875DF0446002C07D0A9488069002894
:1031100003D0A74881692046884721E00020A349C1
:103120000870A348007C00280FD03B219D480088F0
:1031300076DF0446002C07D09D488069002803D024
:103140009B4881692046884700BF9948406900280C
:1031500006D000200090964841696846884700BF25
:1031600038BD70B505461C222946914801F082FD04
:10317000002090490870286800280BD00822884851
:10318000296801F077FD86487ADF0446002C08D0D4
:10319000204670BD82487BDF0446002C01D02046CB
:1031A000F7E70020C0437F49088000207F4908706E
:1031B000814A00218148FFF775FEEAE710B57F4894
:1031C0000068FFF7E7FE10BD38B57D48FFF776FFD2
:1031D000002829D17748007800280AD0744840692F
:1031E000002820D000200090714841696846884737
:1031F00019E06E480078002802D16D48456801E06A
:103200006B488568002229466C480068FFF791FEEC
:103210000446002C07D066488069002803D0644823
:103220008169204688470AE061484069002806D045
:10323000012000905E4841696846884700BF002031
:103240005C49087038BD10B50446A088554908800F
:10325000082221460E315A4801F00CFD0020534946
:1032600008705348C089002801D1FFF7ADFF10BD99
:1032700070B505460020C0434A49088000204B49EC
:1032800008704E480068FFF785FE0446002C07D002
:1032900047488069002803D045488169204688470F
:1032A00070BD70B50546AC1D20884149C98988426A
:1032B00020D1208B02281DD100BF00BFA17EE27E5D
:1032C000120211430846C107C90F002902D0FFF7B7
:1032D0007BFF0FE039480068FFF75CFE0646002ED2
:1032E00007D033488069002803D0314881693046CF
:1032F000884700BF70BD10B504460822A11D3048A4
:1033000001F0B8FCFFF760FF10BD10B5044620883F
:10331000102806D0112808D012280ED0502810D11D
:1033200007E02046FFF78FFF0CE02046FFF7A0FFE5
:1033300008E02046FFF7B5FF04E02046FFF7DBFF7B
:1033400000E000BF00BF10BD38B50446082221468A
:10335000134801F08FFC12487ADF0546002D1CD17E
:103360001748FFF7ABFE00280BD101201149087068
:103370000B490C48008875DF054601200B49087091
:103380000BE00B484069002806D001200090084857
:1033900041696846884700BF0025284638BD0000BF
:1033A000A2240020AC240020FFFF0000AA2400205B
:1033B000A0280020A0240020DB300200B824002038
:1033C000AE24002070B506460C4615462946204618
:1033D000FCF752FF70BDF8B571480078002800D1A5
:1033E000F8BD70480068002801D1012000E00020ED
:1033F00005466D480068002801D1012000E000204A
:1034000006466A480068002801D1012000E000203B
:10341000074600BF002D14D168464EDF0446052C38
:1034200001D101250CE0002C06D000BF60A269216B
:103430002046FCF71FFF03E05A49009809688847B7
:1034400000BF002E1AD1684800880090694667487E
:10345000006860DF0446052C01D101260DE0002C38
:1034600006D000BF52A280212046FCF703FF04E0F3
:103470005E4800684C490968884700BF002F19D191
:103480005A480268921C0168491C0068C1DF044662
:10349000052C01D101270DE0002C06D000BF44A26D
:1034A00098212046FCF7E6FE04E0504800683F49BA
:1034B00009688847002D04D0002E02D0002F00D0CC
:1034C00000E0A7E700BF00BF8AE7FFB581B00C4668
:1034D00016461F46002C02D1072005B0F0BD20463D
:1034E0008107890F01D1012100E00021002901D1CC
:1034F0000720F2E73D4804603B4806803C480760EF
:103500003C49019810DF0546002D01D02846E4E72C
:10351000012023490870162023DFDEE710B511DFF4
:103520000446002C01D0012000E000201C49087056
:10353000204610BD0146002901D10E2070471A48CF
:1035400001600020FAE70146002901D10E207047F2
:10355000164801600020FAE70146002901D10E203B
:103560007047104801600020FAE770B520480068F5
:10357000002811D01E4800688047044600BF254639
:10358000002D07D000BF0AA2FF2133312846FCF7E7
:1035900071FE00BF00BF01E0FFF71DFF70BD00001E
:1035A000BC240020D4240020CC240020D0240020DF
:1035B0002E2E5C2E2E5C2E2E5C2E2E5C2E2E5C5320
:1035C0006F757263655C73645F636F6D6D6F6E5C66
:1035D000736F66746465766963655F68616E646C59
:1035E00065722E6300000000C8240020C42400205F
:1035F000C0240020C5330200F8B504460D469048AB
:103600000068002813D0EAB221788D4BA0681B68AF
:103610009847064600BF3746002F06D000BF89A254
:1036200028213846FCF726FE00BF00BF0CE0012D24
:1036300004D120780121A268904705E0002D03D134
:1036400020780021A2689047F8BDF8B50746694682
:103650008848007800F0CFFA0646002E00D0F8BD6A
:10366000002533E00C2068438349096844188348E7
:10367000006822780121914008420FD0A0680028FC
:103680000CD06078012804D100212046FFF7B4FF58
:103690001AE001212046FFF7AFFF15E077484068A8
:1036A00022780121914008420ED0A06800280BD05A
:1036B0006078012804D101212046FFF79DFF03E037
:1036C00000212046FFF798FF681CC5B26C480078BF
:1036D0008542C7DB00BFC2E770B504460D466948A6
:1036E0000068FFF757FC0646002E00D070BD634807
:1036F00044600560204628430246634801686148EB
:103700000068FFF716FC064600BFEFE7FFB583B081
:1037100006460C461746052F02D2072007B0F0BD1B
:103720005548066056480470574807604449069853
:103730000860002516E00C21614388190278009288
:1037400041680191019989000522120707231B0294
:10375000D318009A9200995000BF0278012191403D
:103760000D4300BF2046611ECCB20028E3D1474B79
:103770002A4629463F4800F069F90290029800283D
:1037800001D00298CAE7424A00213E48FFF78AFB6F
:10379000C4E710B538480068002801D1082010BDE2
:1037A0003448007800F097F9F9E710B5324800681E
:1037B000002801D1082010BD2E48007800F0FAF949
:1037C0000446002C01D02046F5E72E480068FFF79C
:1037D000E1FBF0E7F8B505460C460C2068432649A6
:1037E0000968471824480068002801D10820F8BD5E
:1037F00069462048007800F0FEF90646002E01D008
:103800003046F4E7787800280AD10098E840C007ED
:10381000C00F02D0002020700FE0012020700CE0CB
:103820007878012809D10098E840C007C00F02D07D
:103830000120207001E0002020700020D7E7000068
:10384000E42400202E2E5C2E2E5C2E2E5C2E2E5C70
:103850002E2E5C536F757263655C6170705F636F71
:103860006D6D6F6E5C6170705F627574746F6E2EDB
:1038700063000000E8240020D8240020F024002069
:10388000DC240020EC240020E0240020D9360200B3
:103890004B360200F0B502460C46002035E001230D
:1038A0008340194623460B422ED0D5680D4205D1E0
:1038B00001235B04D5680D43D56004E003231B049A
:1038C000D5688D43D56005252D0707263602AD192D
:1038D0008600AD5903263604B5430526360707276B
:1038E0003F02F6198700F55105252D0707263602F8
:1038F000AD198600AD591D430526360707273F023F
:10390000F6198700F55100BF401C2028C7D3F0BD31
:10391000FEB5E14806690020E049C863002527E0BC
:1039200014206843DE49096844180120A840DD4995
:10393000096808421AD0E068C04370402168084016
:10394000074639462046FFF7A5FFA068B043384038
:103950000090606830403840019000990198084319
:1039600003D0226900990198904700BF681CC5B236
:10397000CD4800788542D3DBFEBD10B5014600205E
:1039800028E014224A43C64B1B689A5801238340FF
:103990001A421ED00522120707231B02D2188300E9
:1039A000D25803231B049A4305231B070724240230
:1039B0001B1984001A510522120707231B02D21873
:1039C0008300D25805231B07072424021B198400F7
:1039D0001A51401C2028D4D310BD70B505460C46A2
:1039E000002C01D1072070BD20468107890F01D12D
:1039F000012100E00021002901D10720F3E7A848B8
:103A00000460AA4805700020A7490870A54908600D
:103A1000A6480078142250430146A148006801F0EE
:103A200042F90020C043A24988600620012181405C
:103A3000A04A116000BF012100F0F7F80620012123
:103A400081409D4A116000BF0020CCE7F8B50446D4
:103A50000D4616461F4692480068002801D10820EE
:103A6000F8BD002F01D10720FAE78F4800788F4971
:103A70000978884201DB0420F2E7284630438A496E
:103A8000097814225143864A1268505086480078BB
:103A900014214843824909684018456082480078EB
:103AA000142148437E490968401886607E480078A2
:103AB000142148437A490968401807617A48007818
:103AC000207079480078401C774908702078FFF70B
:103AD00054FF0020C4E7F0B5024671480068002892
:103AE00001D10820F0BD70480078824201DB072038
:103AF000F8E70020694BD8636748046969480068A3
:103B0000002802D158066A4B586001209040654B4E
:103B10001B681843634B1860002314205043604D0A
:103B20002D684019C360002140E001238B401846F6
:103B3000142353435A4D2D68EB58034235D0254684
:103B4000054202D003231B040EE001235B0414256D
:103B50005543534E3668AD19ED6805431426564358
:103B60004F4F3F68F619F56005252D0707263602E9
:103B7000AD198E00AD5903263604B5430526360728
:103B800007273F02F6198F00F55105252D07072657
:103B90003602AD198E00AD591D430526360707279D
:103BA0003F02F6198F00F55100BF491C2029BCD3F4
:103BB000002097E710B5044639480068002801D175
:103BC000082010BD38480078844201DB0720F8E760
:103BD0002046FFF7D2FE0120A04032490968814308
:103BE000304801600068002803D10120C007304937
:103BF00088600020E5E710B50246294800680028E3
:103C000001D1082010BD28480078824201DB07203E
:103C1000F8E714205043224C246803191E48006919
:103C20001C68204008600020ECE710B5002819DA75
:103C3000224A03071B0F083B9B089B00D2588307AF
:103C4000DC0EFF23A3409A438B071B0E8407E40E70
:103C5000A3401A43194B0407240F083CA408A400EE
:103C60001A5118E0144A03231B02D21883089B0040
:103C7000D2588307DC0EFF23A3409A438B071B0E09
:103C80008407E40EA3401A430B4B032424021B19A0
:103C90008408A4001A5110BD000500504061004086
:103CA000F8240020FC24002001250020002500200D
:103CB0000063004080E200E000E100E01CED00E075
:103CC00010B5184800780121484016490870164878
:103CD0000068002804D0084600781349096888471E
:103CE00010BDF8B505460F4616460F48066015206C
:103CF00027DF0446002C01D02046F8BD29461520B8
:103D000028DF0446002C01D02046F6E7152023DFEB
:103D10000446002C01D02046EFE73946032049DF56
:103D2000EBE70000042500200825002070B50346BD
:103D30000C46002A01D18C4D00E015882846002150
:103D400011E0051206023543A8B25D5C6840050625
:103D50002D0F684005034540A8B205062D0D6D00E6
:103D600068404D1CA9B2A142EBDB70BD02217F4A25
:103D7000516000BF7E4909680029FBD07B498860FB
:103D800000BF7B4909680029FBD00021774A5160B8
:103D900000BF774909680029FBD070470122734BA7
:103DA0005A6000BF724A1268002AFBD0016000BF4F
:103DB0006F4A1268002AFBD000226C4B5A6000BF89
:103DC0006B4A1268002AFBD0704770B504460D4656
:103DD00000E03DDF674800780028FAD10120634900
:103DE000486000BF624800680028FBD0256000BF23
:103DF0005F4800680028FBD000205C49486000BF95
:103E00005B4800680028FBD070BD70B504460D46C5
:103E100029462046FFF7D9FF002070BDF8B50546BA
:103E20000E461746002407E0A00031582846FFF749
:103E3000CCFF2D1D601C84B2BC42F5DB0020F8BD18
:103E400070B5044601200007006980B26043054652
:103E50002846FFF78BFF002070BDF7B584B01546EC
:103E600001200007006980B20499484307463C4698
:103E7000A90000220598FFF759FF039020680190E0
:103E8000019880B2029003990298884202D10020E2
:103E900007B0F0BD3846FFF769FF241D241D00263A
:103EA00007E0B200059881582046FFF777FF241DF0
:103EB000761CAE42F5DB2946381DFFF786FF2E49FA
:103EC00003980843019038460199FFF77EFF0020D0
:103ED000DEE7F7B586B00746144601200007006903
:103EE00080B278430490049D286803900398000CE6
:103EF0000004019020490198884204D000202070DD
:103F0000052009B0F0BD2D1D287820702D1D2078CA
:103F1000800005902946059A079800F0ABFE2078AE
:103F2000810000220798FFF701FF06461248304340
:103F3000029003990298884201D00520E1E7002011
:103F4000DFE7024601200007006980B250430860A5
:103F50000020704707490870704710B50446204696
:103F6000FFF704FF10BD0000FFFF000000E5014067
:103F700000E401400C2500200000DE45F8B5FE48B5
:103F800000780607360FFC484778022E01D8252F07
:103F900001DD0020F8BD002E0BD13A46F749F64866
:103FA000801C00F092FE002801D10120F2E70020E1
:103FB000F0E7012E01D10F2500E05525002408E08F
:103FC000ED49A01C085CA84201D00020E2E7601C7B
:103FD000C4B2BC42F4DB0120DCE70320E84988607E
:103FE0000020E8490860E84908610120E7490861C4
:103FF00000BFE54800690028FBD00020E2490861C5
:10400000E24948600860E2490880704710B5E1481D
:1040100000788007800F14D1DE480068000A000293
:104020000FD1DC48007840B204280ADCD948007877
:1040300040B22721C943884203DBD74800780328D0
:1040400001D9042010BDFFF7C8FFD2480068D3494A
:10405000C860D148007808610846406A000A00023A
:1040600048620846406ACE490968090E0843CB49B0
:104070004862CB4800680002C86101200863002044
:10408000C862C84800780002C74909780843C34994
:104090004863C64800780004C54909780902084306
:1040A000C44909780843BD494861C34800784006BF
:1040B000C249097809060843C14909880904084327
:1040C000C0490978090208432530B44988610020B5
:1040D000B8E70021B14A40321160BB490968AF4AD4
:1040E0009163BA490968D163B94909684900891CD3
:1040F0009160A14951600021A34A11600321A14AA6
:104100001160002806D000219F4AD16001219F4AFA
:10411000516003E09F490968A04AD160704710B51B
:1041200000209E49403108600120954988600020A8
:104130000861A8495122120189184860FFF74DFF14
:104140000120A549086010BD0020A4490860012095
:104150008107086000BFA14800680028FBD001204B
:104160009F49096848609E490968C86000209C49C9
:1041700009680522120289184860002198480068E1
:10418000FF304130016096480068FF3041304160A7
:1041900093480068FF304130816091480068FF30EB
:1041A0004130C160012000048D49096803221202D8
:1041B0008918486001218A480068FF30FF300230CA
:1041C00001600420864909680522120289180861E5
:1041D000844800688249096815229201891808609C
:1041E000FF2005307E4909688918486001207C4914
:1041F0000968086000207C490860704701467648DD
:104200000068012801D900207047002906D17748AD
:10421000734A10600820764A106013E0012906D125
:1042200074486F4A10600920714A10600AE0022940
:1042300006D171486A4A10600A206D4A106001E098
:104240000020E1E70120DFE701464AB2624800684A
:10425000012801D900207047042A03DC2720C0432D
:10426000824201DA0020F6E78807800F01D00020A3
:10427000F1E7484801600120EDE770B504460D46BE
:10428000002C06D0012C05D0022C13D0032C21D1F8
:1042900018E000BF0020FFF71CFF03203F4940311A
:1042A00008600120374908603849086003204A49FE
:1042B00008600FE02846FFF7C7FF002801D104205F
:1042C00070BD07E02846FFF799FF002801D10420C0
:1042D000F6E700BF00BF0020F2E710B5FFF734FF9C
:1042E000002803D1FFF792FE002801D0042010BD62
:1042F00000204249087001203749086040480069A1
:10430000102108433E4908610020F0E710B53C4801
:104310000069102108433A49086100BF1A48C06883
:1043200000281DD000201849C860012000F03AF98B
:1043300029480068042813D10120144948603148F5
:104340000068012808D1FFF719FE002804D01048A2
:104350000088401C0E4908802721074800F0A3FC74
:104360001F480068FF304130006800284FD000210E
:104370001B480068FF3047E0BC280020E04F0200E7
:1043800000F5014000120040001100400010004004
:104390005025002018250020482500200015004049
:1043A0003C25002027250020382500202625002038
:1043B000252500202425002034250020302500203C
:1043C0002C25002028250020402500204425002001
:1043D0005C25002000F00140102500200001004075
:1043E0001C2500204C2500201425002000800040C2
:1043F000202500200090004000A00040542500200F
:1044000000ED00E0001400404130016086E769489B
:104410000068FF30413040680028F7D0002165482F
:104420000068FF30413041606348006800F0BAF82E
:1044300062480068401C6149086010BDF8B5044638
:104440000E4615461F465E490D705E4807605E4881
:10445000066001205D49087000205D4908805D48C4
:104460000068002801D10520F8BD002C03D1FFF71A
:1044700056FE0020F8E7032C12D1564800680128A8
:1044800003D1534908800220EEE7534800880121F8
:10449000C90308434E490880FFF741FE0020E3E7C7
:1044A0004C480068012804D00120494908800220B6
:1044B000DAE745480068272803D9012044490880E5
:1044C000D2E7002044490880012C0BD12721434822
:1044D00000F0E9FB0120FFF7FCFD04203D490860E6
:1044E0000020C1E7022C51D135480078252804DD91
:1044F0000120374908800320B6E7324800780007DA
:10450000000F364908702E48007848702D48006822
:10451000401C1BD0012804D0022809D003281AD13E
:104520000DE02A462E492D48801C00F0A3FB17E021
:104530000F2229462948801C00F0AEFB10E05522CE
:1045400029462648801C00F0A7FB09E03146284692
:10455000FFF793FE88E701201D490880042083E7C8
:1045600000BF0020FFF7B5FD12480068FF30413062
:104570001C4908611C481D495122120189184860D4
:1045800001201849486002201249086000206BE7AA
:1045900001460E4A107800220C4B1A700C4A128801
:1045A0000A607047C206D20E01219140104A116084
:1045B000704700001C250020202500201425002025
:1045C00055250020582500205C250020542500207A
:1045D000522500201025002050250020BC28002056
:1045E000E04F020000F501400010004000F00140E3
:1045F00080E200E070B5054600231A461021022033
:10460000C2DF044600BF2646002E06D000BF4CA2E3
:1046100034213046FBF72EFE00BF00BF0123792274
:1046200029460220D3DF044600BF2646002E06D0CE
:1046300000BF43A23A213046FBF71CFE00BF00BF7B
:1046400039210220CDDF044600BF2646002E06D0C9
:1046500000BF3BA23D213046FBF70CFE00BF00BF70
:104660003B490220D1DF044600BF2646002E06D07B
:1046700000BF33A240213046FBF7FCFD00BF00BF66
:104680000220C4DF044600BF2646002E06D000BF2D
:104690002BA243213046FBF7EDFD00BF00BF70BDEC
:1046A00070B500240220C5DF044600BF2546002D5A
:1046B00006D000BF22A24C212846FBF7DBFD00BF3D
:1046C00000BF70BD70B523480078234908702148A9
:1046D0000088001248701F48807888701D48408804
:1046E0000012C8701B48007908711A4880880012AF
:1046F00048711848807988711648C0880012C871BE
:104700000A4608210220C7DF044600BF2546002DC7
:1047100006D000BF0AA262212846FBF7ABFD00BF0E
:1047200000BF70BD0B498880C988491C094AD180E7
:104730007047084908804988491C064A51807047DB
:104740002E2E5C616E745F6373635F74782E6300FA
:10475000961F0000682500206025002070B50446E3
:104760007548844201DB64250EE07448844201DC14
:10477000002509E07149611A642251430846E1218C
:10478000890000F063FAC5B2284670BDF8B56C48E0
:10479000006800282DD000206949086069488068B9
:1047A000C5B20120684948604B21090169430846A8
:1047B000FF2100F04BFA4100401886B23046FFF767
:1047C000CDFF074639466148FCF783FC0446002CC0
:1047D0000ED0082C0CD05E48844209D05D4884423B
:1047E00006D000BF5CA266212046FBF743FD00BF58
:1047F00000BFF8BD70B501205B49486018205149E1
:10480000486000204E49086001204E49086007209A
:1048100027DF044600BF2546002D06D000BF4EA26C
:1048200080212846FBF726FD00BF00BF032107209B
:1048300028DF044600BF2546002D06D000BF46A253
:1048400083212846FBF716FD00BF00BF072023DFAA
:10485000044600BF2546002D06D000BF3EA286219B
:104860002846FBF707FD00BF00BF00203449086061
:1048700001203549086070BD30B585B01421684607
:1048800000F011FA00BF6846407B01090901491C8C
:1048900068464173407BF021884310306946487375
:1048A00000BF00BF6846807B00090001401C887380
:1048B0006846807BF021884310306946887300BFCA
:1048C00000BF6846C07B00090001C8736846C07B12
:1048D000F02188436946C87300BF00BF6846007C6A
:1048E00001090901491C68460174007CF0218843D4
:1048F00010306946087400BF00200090012168460E
:1049000001710020029064216846017369460F48D6
:10491000FCF7BEFB044600BF2546002D06D000BFB5
:104920000DA2A5212846FBF7A5FC00BF00BF05B0DE
:1049300030BD064870470000B80B00003408000086
:10494000007100400075004000700040E428002025
:1049500003300000013400002E2E5C626174746527
:1049600072792E6300000000007300400246086860
:10497000012802D0022802D100E001E000E000BFDF
:1049800000BF0120704730B58BB0282101A800F08E
:104990008AF90020019007206946088200BF684616
:1049A000007A01090901491C68460172007AF02168
:1049B000884310306946087200BF00BF6846807B9C
:1049C00001090901491C68468173807BF0218843F5
:1049D00010306946887300BF00BF01A8407A000903
:1049E0000001401C01A9487201A8407AF0218843C7
:1049F000103001A9487200BF00BF6846C07A0109A3
:104A00000901491C6846C172C07AF0218843103000
:104A10006946C87200BF0721684681742C4805901A
:104A20002C4806900A2168460177042000906846C9
:104A3000099000BF0AA8407800090001401C0AA99B
:104A400048700AA84078F021884310300AA94870BD
:104A500000BF01A92048FCF72BFF044600BF2546F4
:104A6000002D06D000BF1DA278212846FBF702FCCE
:104A700000BF00BF0BB030BD1D4908814968491C0B
:104A80001B4A516070471A4988814989491C184A54
:104A90005181704710B501201549087048700E48C3
:104AA000FCF75BFF0446002C0ED0082C0CD01148FC
:104AB000844209D01048844206D000BF07A29B213F
:104AC0002046FBF7D7FB00BF10BD0348704700002E
:104AD0006D49020070250020FC2800202E2E5C630A
:104AE00073635F73657276696365732E630000009C
:104AF00094290020033000000134000074DFFFF728
:104B0000CFFDFEF70BFD1A48FFF727FA642118487E
:104B1000FFF77BF900BFBFF34F8F16481649C860F7
:104B2000BFF34F8F00BF00BFFEE770B505460C46D0
:104B3000164620785A2801D1FFF7E0FF70BD38B53E
:104B4000002000900D48009069460D48FCF759FC84
:104B5000044600BF2546002D06D000BF09A23F2114
:104B60002846FBF787FB00BF00BF38BD04487047ED
:104B700004B002000400FA0500ED00E02B4B020037
:104B8000A42900202E2E5C6E75735F7365727669A2
:104B900063652E6300000000F8B504462004860F0C
:104BA000A004870E2006800E0090A507AD0F032DF0
:104BB00000D12D1F2B4639463046009AFFF73EFCA8
:104BC000F8BD70B50024072003210A4613048D00A8
:104BD0002B4305252D070602AD198600AB5100BFFA
:104BE0007D20C000FBF786FA07200C490969C14007
:104BF000C907C90F00290FD1FFF76FFB0124E40398
:104C000027200002044304200443032004432046D9
:104C1000FFF7C2FF00BFFEE770BD000000050050B7
:104C200030B50B46014600202022012409E00D4644
:104C3000D5409D4205D31D469540491B25469540CC
:104C400040191546521E002DF1DC30BD70B5002410
:104C50002546002801DA01244042002901DA012515
:104C60004942FFF7DDFFAC4200D04042002C00D0AB
:104C7000494270BD03460B439B0703D009E008C9B6
:104C8000121F08C0042AFAD203E00B78491C0370F3
:104C9000401C521EF9D27047D2B201E00270401C93
:104CA000491EFBD270470022F6E710B513460A46AC
:104CB00004461946FFF7F0FF204610BD421C01785C
:104CC000401C0029FBD1801A704730B504460020F3
:104CD000034600E05B1C934203D2E05CCD5C401BCA
:104CE000F8D030BDF0B51FB488B00B9909980024F6
:104CF00048400999C00F490049080991C0070B991C
:104D00000090490049080B9109990898A646084364
:104D100003D00B990A98084303D1002001460DB037
:104D2000F0BD099801244000420D4800410D09984A
:104D300024050003000B204309900B980003000B8F
:104D400020430B9050181A49401800220190144635
:104D5000104601E0032801DA034600E003239C46E5
:104D6000C11A0AAE0AE05F0008ADED5B4F00F75BC9
:104D70007D430027AA187C415B1E491C6145F2DD7A
:104D8000410004AB5A522104120C0A43240C401C6B
:104D90000828DFDB0198029000997046019100908D
:104DA000059B049A0799069800F04EF8B7E70000B3
:104DB0000DFCFFFF0EB505490291002100910A4646
:104DC0000B46019100F040F803B000BD3304000031
:104DD0004A0009030123090B1B051943094B10B5B0
:104DE000520D9A4201DA002010BD064B34339A422C
:104DF00003DC9A1A00F00AF810BD034951188840E4
:104E000010BD0000FF030000CDFBFFFF10B5202AFE
:104E100004DB0846203AD040002110BD0B46D340A9
:104E2000D0402024A21A91400843194610BD10B565
:104E3000002B08DA0024401C614192185B411A43A0
:104E400001D14008400010BDF0B51FB482B0054646
:104E50000C0003D0084600F08AF802E000F087F862
:104E60002030024600902146284600F053F8049B6B
:104E7000059A04460F4618431143084303D12046C0
:104E8000394607B0F0BD1846104317D000984021AE
:104E90000A1A18460599FFF7B9FF05460E46009A0B
:104EA0000599049800F036F8084301D0012000E08D
:104EB0000020C11705430E432C43374300990E9839
:104EC0006305401A7905E40A0A3000220C43FD0A02
:104ED000002802DA00200146D3E7010510196941D4
:104EE0000C9C0D9D00196941FFF7A1FFC9E7000067
:104EF000064C0125064E05E02046E36807C82B4313
:104F000098471034B442F7D3FBF7DEF8085002009C
:104F10002850020010B5202A04DB0146203A9140B7
:104F2000002010BD914020239C1A0346E340194302
:104F3000904010BD30B58C180278401C13071B0F31
:104F400001D10378401C120906D10278401C03E00D
:104F50000578401C0D70491C5B1EF9D101E00B70F7
:104F6000491C521EFBD1A142E6D3002030BD2021B6
:104F7000020C01D010211046020A01D00839104657
:104F8000020901D0091F1046820801D0891E10466F
:104F9000420801D0881E7047081A704702E008C80E
:104FA000121F08C1002AFAD170477047002001E0A3
:104FB00001C1121F002AFBD170470000B9A521FBD7
:104FC000BD72C345161801000F1801000A18010030
:104FD0009ECADC240EE5A9E093F3A3B50000406E61
:104FE000FFC1FBE84C90728BE7B3518963AB23237D
:104FF00002841872AA612F3B51A8E53749FBC9CA40
:105000000C18532CFD000000285002000024002042
:1050100098010000344F02007050020098250020D3
:10502000280E0000AC4F0200370024F400FFFF827E
:1050300001860F0802000404FF0F080245800040AB
:10504000085508010001C203420337294176715B0C
:10505000064655555500030323710242044205429A
:1050600006420742084209420A420B420C420D0026
:020000041000EA
:04100400FFFFFFFFEC
:020000041000EA
:04100800FFFFFFFFE8
:020000041000EA
:04108000FFFFFFFF70
:04000005000200C134
:00000001FF
