:020000040003F7
:10C80000F03B002065CA030077CA030079CA030021
:10C810000000000000000000000000000000000018
:10C820000000000000000000000000007BCA0300C0
:10C8300000000000000000007DCA03007FCA030062
:10C8400081CA030081CA030081CA030081CA0300B0
:10C8500081CA030000000000A9DD030081CA0300B3
:10C8600081CA030081CA030081CA030081CA030090
:10C8700081CA030081CA030081CA030081CA030080
:10C8800081CA0300E1D6030081CA030081CA030004
:10C89000F7D6030081CA0300BDDF030081CA03008D
:10C8A00081CA030081CA03000000000000000000EC
:10C8B0000000000000000000000000000000000078
:10C8C00000F002F800F040F80CA030C80838241836
:10C8D0002D18A246671EAB4654465D46AC4201D1B8
:10C8E00000F032F87E460F3E0FCCB64601263342AA
:10C8F00000D0FB1AA246AB4633431847E02C000099
:10C90000002D0000103A02D378C878C1FAD8520737
:10C9100001D330C830C101D504680C6070470000F5
:10C920000023002400250026103A01D378C1FBD84B
:10C93000520700D330C100D50B6070471FB5C04609
:10C94000C0461FBD10B510BD02F002FE1146FFF734
:10C95000F5FF00F0B3F802F01AFE03B4FFF7F2FFA0
:10C9600003BC02F01FFE0000026882F308884368DF
:10C9700018470000401E00BF00BF00BF00BF00BF3F
:10C9800000BF00BF00BF00BF00BF00BF00BFF1D1AC
:10C990007047000070B505460C46164602E00FCC05
:10C9A0000FC5103E102EFAD2082E02D303CC03C5B9
:10C9B000083E042E07D301CC01C5361F03E02178C1
:10C9C0002970641C6D1C761EF9D270BD10B500F084
:10C9D0001DF8002805D01F491D484860C8131E498E
:10C9E00088611E48018CC9B201290ED1818C0907CA
:10C9F0000BD1018D0906090F042906D1808D00068F
:10CA0000000F02D116490120886010BD1348018C27
:10CA1000C9B2012917D1818C090714D1018D0906EA
:10CA20000A0F03D1828D1206120F0ED0090F0129B1
:10CA300003D1828D1206120F07D0032903D1808DF6
:10CA40000006000F01D00020704701207047000051
:10CA5000DFFF07C000050040006C0040C00F00F081
:10CA6000000600400A48026803210A4302600948A0
:10CA7000804709480047FEE7FEE7FEE7FEE7FEE7DE
:10CA8000FEE7000005480649064A074B70470000CC
:10CA900024050040CDC90300C1C80300F02F0020C9
:10CAA000F03B0020F0330020F033002000F064F869
:10CAB00000F062F810B501F04DFB10BD08B5434819
:10CAC0004349006800240860642807D101243F48D6
:10CAD00001F060FD00213D4801F057FD3D4801682F
:10CAE0004501A94213D140697921C90288420ED17A
:10CAF000E8020069E911884209D137480090374BB4
:10CB000005220321002000F01CFE002801D000F0C7
:10CB100033F832490120143901F092F90028F6D196
:10CB200030492F480860304B50223049082001F02E
:10CB300021FA0028EBD12E4801F038FA0028E6D17E
:10CB40002A4A14215032082001F054F80028DED17E
:10CB5000002C04D1284600F0DEF9002803D100F0B3
:10CB60004CFA0028D3D1284600F0D5F90028CED0C1
:10CB7000284600F06EFACAE7BFF34F8F1E491D48E2
:10CB8000C860BFF34F8FFEE71CB5019100901B4AB0
:10CB90000821684601F042F81CBD10B50021184A72
:10CBA000084601F03BF810BD10B50246082901D037
:10CBB000FFF7E2FF11685068884710BD10B50029E3
:10CBC00001D0FFF7D9FF01F097F910BD04B00200C2
:10CBD000042400200010001089CB0300FC24002056
:10CBE0000C000300440700509BCB03003C270020AF
:10CBF000B5CA03000400FA0500ED00E0A9CB03006C
:10CC0000BDCB030010460A4610B5B2494C68042C4F
:10CC100003D1022A01D1002806D0002803D0AEA2F9
:10CC20004D21FFF743FF10BD8A69002AFBD019464A
:10CC3000904710BD10B5A74B01201870032000F0DD
:10CC400095F910BD10B5A34C2078002801D008201C
:10CC500010BD606900F074FE002803D09EA2702110
:10CC6000FFF724FF0F2100224904606900F002FE53
:10CC7000040003D098A27321FFF718FF204610BDCF
:10CC8000F0B59B4987B09948924D08600024B927B8
:10CC90006C702946BF026C802431954801F0A3FBDB
:10CCA00000281CD101202946400424314860284630
:10CCB0000146496AC1611C3039264760B60202A8A4
:10CCC00000F0F0F90498FE2802D13868401C0ED01C
:10CCD000804831461C3001F0D7FB002802D06C6040
:10CCE00007B0F0BD0220019A009900F03FF97948A1
:10CCF000804A0021143000F076FD002803D076A28F
:10CD0000A421FFF7D3FE0F2100224904686900F037
:10CD1000B1FD002803D070A2A821FFF7C7FEEE6086
:10CD200001202C6168600020DAE76A498861704759
:10CD300070B5684C0546E068854201D90C2070BD8D
:10CD4000A80701D0062070BD6068012801D0082026
:10CD500070BDFFF777FF0028FAD10221A56061605E
:10CD600070BD70B5050004D0287A800703D010206C
:10CD700070BD0E2070BD574C6068022805D0032896
:10CD800003D0042803D0082070BD042060606868C8
:10CD9000A168860020698019884204D90020C04318
:10CDA00020610C2070BDFFF74DFF0028FAD14948E3
:10CDB000A96832461C30236901F036FB0028F1D106
:10CDC000216989192161A2689142EBD0092070BDC7
:10CDD000F8B5404C05466068022802D0032805D10A
:10CDE00001E0032060602069002801D00820F8BD20
:10CDF000FFF728FF0028FAD13D4B0021403B08E017
:10CE0000AA688E00965962789700521CDE516270B3
:10CE1000491C6A688A42F3D8F8BD70B52D4C606829
:10CE2000042805D105206060A1682069884201D0EE
:10CE3000082516E0FFF706FF050012D1B9200022F1
:10CE40008002A16801F034F8294960804039627895
:10CE50000988002A03D0884201D00B2070BD06202B
:10CE60006060284670BD3EB51A4C6068062802D046
:10CE7000082528463EBD606900F062FD002804D008
:10CE8000FF2115A29531FFF711FE1248A168243049
:10CE900001F0FAFA002804D0FF210FA29931FFF720
:10CEA00005FE0C4800231C3041680830A26801F0E0
:10CEB000BBFA0500DDD1009061886A469180A268C6
:10CEC0000292019900F052F8D3E710B5042000F067
:10CED0004DF810BD082400202E2E5C6466755F643A
:10CEE00075616C5F62616E6B2E63000005CC0300A0
:10CEF0001C29002035CC030010B574480368012BB1
:10CF000002D1022900D10160100003D070A23421A7
:10CF1000FFF7CCFD10BD38B5012100244904401AAB
:10CF200007D1684600F0E6F800980068012800D1B3
:10CF30000124204638BD10B5044664481021001D68
:10CF400001F02AFA002803D061A28821FFF7AEFD84
:10CF50005E48002310222146001D01F09FF90028A1
:10CF600003D05BA28E21FFF7A1FD10BD17B581B0E4
:10CF7000684600F0BFF801995948544C002913D075
:10CF800003291CD0FE22012923D002292CD00429F8
:10CF900009D101F070FC002803D04DA2C121FFF798
:10CFA00085FD042020601FBD6946098981800399A1
:10CFB000C1600121FF2282600160216010E001F068
:10CFC0005AFC002803D042A2A721FFF76FFD0320DF
:10CFD000E8E7002181800260C16000998968816072
:10CFE0003F48FFF7A8FF1FBD00990B6803608B88BF
:10CFF0008380C9688260C160F2E73EB5394800901D
:10D00000102001900120029001F0C9F800281FD1E2
:10D010002E496846091D01F0E9F8002818D1FFF7EC
:10D020002FFE002814D101F024FD0546274C3DDFDA
:10D03000002803D026A24621FFF738FD00F064FE49
:10D040002068022803D0032801D00428EFD1284605
:10D050003EBD70B511DF002804D0FF211CA20D31A8
:10D06000FFF724FD204900200B681F4C012180346C
:10D070000A4682401A4204D0C506ED0E0A46AA406E
:10D080002260401CC0B22028F2D313DF002804D055
:10D09000FF210FA21231FFF709FD0120400400F02B
:10D0A00025F870BD1FB50949044600231022091D4B
:10D0B000684601F032F90098206068468088A080B8
:10D0C0000398E0600298A0601FBD00003424002097
:10D0D0002E2E5C626F6F746C6F616465722E6300DC
:10D0E00028290020F9CE030000E100E010B5FFF789
:10D0F0003BFC10BD014901607047000000FC0300CB
:10D1000030B585B0002822D00388F64CA34220D049
:10D11000F54B1B78002B1CD0F34B10255B1C1D70AE
:10D120005970002401259A70032269460A820094EE
:10D13000019402940394C2890A808D708C8004A9A2
:10D140000291039300886946A6DF05B030BD0E202A
:10D15000FBE70820F9E7F0B589B0044602276846E6
:10D1600007730D468783608A08AB07AA0021A5DFF5
:10D170000026002804D0616A002917D0884715E0EE
:10D180006846008CC007C00F10D068460682208811
:10D1900003A9A8DF002810D1A97E0B0002F009FA2C
:10D1A000093A0F11191B1D1F38223A00FF20FE30CB
:10D1B00069460882208803A9A8DF09B0F0BD00965F
:10D1C00001E001200CE0226A6946204690470020D9
:10D1D000F3E70097F7E7032002E0042000E00520D2
:10D1E0000090F0E7288B032805D20322082120466F
:10D1F000FFF786FFE1E7287FE97E000208436946E2
:10D20000888003D006200090226ADEE70720FAE734
:10D210000920E5E70322EAE730B585B00D460400B2
:10D2200032D0002D30D0286800282DD00020C043F7
:10D23000AE4B20800FCB049301AB07C3AC486946CB
:10D240000880891C01A862DF00281CD1A21C694645
:10D250000120A0DF002816D1684680782071204682
:10D2600000F0C0F800280ED1204600F0F9F80028A0
:10D2700009D1286820626868002800D060629A4955
:10D2800001200870002060E70E205EE73EB5002810
:10D2900020D000291ED0026A002A1BD00A88102A3A
:10D2A00019D0112A28D0502A17D0512A12D1044659
:10D2B000891D087802280DD14888E289904209D159
:10D2C000891C2046FFF747FF002803D0616A002928
:10D2D00000D088473EBD898810E0CA88C3889A423A
:10D2E000F8D1082200928A7F6B461A712031029190
:10D2F000026A694690473EBD0021C94301803EBD98
:10D30000F0B585B00A4605002DD0288875498842B9
:10D310002BD075480078002827D0734C1020641C4F
:10D320002070072060700127A770032168460182E2
:10D330000026E11C104600F04CF801466846008AC1
:10D340000918684601820096019602960396E989BB
:10D3500001808770868004A803940290288869461B
:10D36000A6DF05B0F0BD0E20FBE70820F9E7F0B519
:10D3700085B00A46050028D028885A49884226D018
:10D3800059480078002822D0574C1120641C207086
:10D390000127684607820026611C104600F019F834
:10D3A00001466846008A091868460182009601967F
:10D3B00002960396E98901808770868004A8039409
:10D3C000029028886946A6DFCBE70E20C9E708202F
:10D3D000C7E70870020A4A70020C8A70000EC87013
:10D3E0000420704730B58FB005461C21684601F017
:10D3F000ECFF694608780421084369460870002458
:10D4000001940394049405940694287908A98870DB
:10D4100037486946801C0884601C00070794000F89
:10D420000C77103048778A7FF9200240921CE72061
:10D430000240012002438A77142109A801F0C5FFA8
:10D4400008A8099007A80A9069468C851420CC8505
:10D4500008860D946888AB1D09AAA2DF0FB030BD05
:10D4600030B58FB005461C21684601F0AEFF694615
:10D4700008780821084310221043694608700024E8
:10D4800001940394049405940694287908A988705B
:10D4900017486946401C0884601C00070794000F69
:10D4A0000C7710304877887FF9210840801CF721DD
:10D4B000084010430121084369468877142109A8D0
:10D4C00001F083FF08A8099007A80A9069468C8597
:10D4D0001720CC8508860D942B4668880E3309AA40
:10D4E000A2DFBBE7FFFF000040240020CCF50300D3
:10D4F000301500008307FF22DB0E9A408907090ED2
:10D50000994000280BDA0007000F08388308F84814
:10D510009B001B18D86990430843D8617047830863
:10D52000F4489B001B181868904308431860704724
:10D53000F0B5F14F28217C6841430D19F9684A1C68
:10D5400009D028224A431619AB68B268934204D81E
:10D55000D21AB2606962F860F0BD0A4602E00A467B
:10D56000796A9B1B4E1C0BD028264E433719BE6888
:10D570009E42F4D328264E433619B768FF1AB76087
:10D58000AB60696228214A4311194862F0BDF8B5C1
:10D59000D94CE568681C36D0D84800264068216917
:10D5A000401A07023F0A1AE02820454360682A18FB
:10D5B0009068B84215D863693F1A8619556A002BDE
:10D5C0000AD0116AD0699847002808D0FF21CCA260
:10D5D0005531FFF76BFA02E0D169106A8847681C81
:10D5E000E2D1A178E078814206D1401CC0B2E0705F
:10D5F000022801D10020E070BF490006800D1831DB
:10D600000E5000F0D6F9F8BDF8B50446BA48C16826
:10D610000091467856E0B848F10082688D184BE0DA
:10D62000601C07D0B44A28215268614320468918FB
:10D630004C6A20E02878182141436A68401CC0B237
:10D6400052182870A978884201D100202870AA4B6E
:10D65000506828215B684143C9181368012B2DD1FC
:10D660000B7E002B2AD19368CB60D3680B611369C2
:10D670004B6152690A62A04ACF681369BC46FA1A24
:10D680001202AB4F120ABA4202D20B69D21809E059
:10D6900062469A1A12020B69120A934201D99A1A27
:10D6A00000E000228A600022CA600A6101220A7634
:10D6B000921E4A62FFF73CFF601CB1D1287869785E
:10D6C0008842ADD13046761EF6B20028A3D18A48F2
:10D6D000C1680098814201D00120F8BD0020F8BD4A
:10D6E00094490020086048608860C86091494039CA
:10D6F000086048604BE7F0B5002087B0C043029057
:10D700007D480669C568684600F059F9074600F08B
:10D7100073F90446002F08D002AA3146009800F0A1
:10D72000B3F90298FFF770FF06E00298FFF76CFF6D
:10D73000002801D1002C02D0284600F0CEF907B015
:10D74000F0BDFFB59807002481B01E4615460F4670
:10D7500000280BD1002E09D000F01AF966490A986A
:10D7600048610F70324600204E6008E0072005B087
:10D77000F0BD28234343D4509B181C76401CB8426C
:10D78000F7DB28204743BB19032048700F46184693
:10D790008B6019461830002218232E465E43D300B2
:10D7A0005B181C705C709D7058603018521C032A06
:10D7B000F5DB0020C043F860BC70FC7001245E48BB
:10D7C0002405046003211420FFF794FE5B480460E5
:10D7D0004A4C0198A06003211120FFF78BFE60687E
:10D7E00038610020C3E770B5434C6568002D06D052
:10D7F000002A06D0002804D00023247809E008205D
:10D8000070BD072070BD28265E43AE59002E04D09F
:10D810005B1CA342F7DB042070BD282401265C4377
:10D820002E516419E26161600360002070BD3049CF
:10D830004868C005C00D17D0103807D50207120F71
:10D84000083A920892005118C96904E08108294AEF
:10D850008900891809688007C00EC1400806800F3A
:10D86000012803D0032803D002207047002070470E
:10D8700001207047FEB504461F48174642680D4612
:10D88000002A0CD001788C4201D2052D01D207204C
:10D89000FEBD2146282359435358012B01D00820AF
:10D8A000FEBD8818406801281DD00026FFF7BFFF85
:10D8B000C0001149019089684018694600F050F98C
:10D8C000002812D00121446001600C4949680830E9
:10D8D000E2C009490198896841180098487000F031
:10D8E00068F80020FEBD2E46E0E70420FEBD0000E3
:10D8F00000ED00E000E400E04824002000150140B5
:10D900002E2E5C2E2E5C2E2E5C2E2E5C2E2E5C532C
:10D910006F757263655C6170705F636F6D6D6F6E64
:10D920005C6170705F74696D65722E630000000049
:10D93000FFFF7F004011014080E200E000E100E0D5
:10D94000F8B5A64D04466868002809D029788C42AD
:10D9500001D30720F8BD282161434058012801D098
:10D960000820F8BDFFF763FFC600A86869463018B5
:10D9700000F0F6F8002809D0022112C0A86831187A
:10D980000098487000F015F80020F8BD0420F8BD9C
:10D9900010B50121924A48041060924A40109060EC
:10D9A000904A403A9060904841602F20FEF7E2FF95
:10D9B00010BD01208A49000580310860704710B50C
:10D9C000864900238A78CC78A24212D0521CD2B267
:10D9D0008A70022A00D18B708A78804B92001833AB
:10D9E0009A580260086910180002000A08610120B4
:10D9F00010BD0360002010BDF8B57848C1680091E3
:10DA0000457833E07548E90080680E1834782AE0DC
:10DA1000182060437168641C0818B178E4B2A14210
:10DA200000D100240168022902D003291BD113E090
:10DA30006A4A40682821526841438F18397E00297C
:10DA400011D000F09FF8002038760CE028277843AA
:10DA5000C0180276406A03E0604900224B68C8683B
:10DA6000471CF3D1C8607078A042D1D128466D1E02
:10DA7000EDB20028C6D15948C1680098814201D052
:10DA80000120F8BD0020F8BDF7B5544C00256768AB
:10DA9000E3681EE028215943C9198E68864202D9DD
:10DAA000301A886017E0801B751900268E600E768C
:10DAB0004E699C464B6AB646002E0AD0019E7619E6
:10DAC0003602360ACE6076460E6116684E626146B0
:10DAD0001160591CDED1E360FEBDF8B53F49CA684C
:10DAE000531C3AD028235A434B68D21896683F4AB1
:10DAF00054680F69401CE11B0D022D0AED1C012129
:10DB0000002810D1374A08045060364A403A506025
:10DB1000374A40001060324A803A10603248016053
:10DB20002F20FEF727FFB54200D23546E819000244
:10DB30002E49000A403108602C494968001B091B26
:10DB40000902090A0002C91C000A814204D9012005
:10DB50002349400480310860F8BDFFF719FFF8BD84
:10DB600042788378521C934200D10022037893427A
:10DB700001D1002070470A60416840781822504364
:10DB80000818704770B5154DEA686B681446114661
:10DB900006E0814207D00A4628267143C918496A1F
:10DBA0004E1CF6D170BD002EFCD08A4204D1282034
:10DBB0004443E018406AE86028204143C8182824FC
:10DBC00081686243406AD2185062421CEAD028221F
:10DBD0005043C01882685118816070BD48240020ED
:10DBE00080E100E0401301400010014000150140B9
:10DBF00080E200E030B5CB0008339DB293070024EB
:10DC0000002B01D0072030BD564B9A605219DA60C4
:10DC10005C701C7058809980002030BDF7B5514C65
:10DC200082B060880F4681426CD800206946087037
:10DC30004E494D4E4868C005C00D16D0103807D566
:10DC40000207120F083A920892005118C96904E0BD
:10DC50008108474A8900891809688007C00EC140B9
:10DC60000806850F012D01D10AE0042568462BDF47
:10DC700002280BD0002803D03EA25921FEF716FF40
:10DC80006078A188884203D2401C02E072B6F7E7B0
:10DC900000202278C0B2904207D06678607888422F
:10DCA00001DA401C00E000206070012D0BD062B64C
:10DCB000684600782CDF022805D0002803D02DA26A
:10DCC0006121FEF7F3FE2848864219D0A068F500CE
:10DCD00004994151029900290CD0002F0AD0608884
:10DCE0003A464643E068301801F010FBA068281857
:10DCF000878002E0002128188180002005B0F0BD57
:10DD00000420FBE70920F9E70EB504E068468188A6
:10DD1000029A0098904702AA01A9684600F003F809
:10DD20000028F3D00EBD70B50E4B05245D781E782B
:10DD3000B54215D01D781C789E88B44201DA641C67
:10DD400000E000241C705C88DE686C43A419046049
:10DD50009B68E800C418A4880C8018580024106040
:10DD6000204670BD68240020FFFF000000ED00E0A9
:10DD700000E400E02E2E5C2E2E5C2E2E5C2E2E5CFF
:10DD80002E2E5C536F757263655C6170705F636F9C
:10DD90006D6D6F6E5C6170705F7363686564756CE8
:10DDA00065722E6300000000F8B5394800690090E4
:10DDB00038490020C863032504462D0437E01421A8
:10DDC000426861438B1801228068A24002422CD035
:10DDD000D868C243009842401868024000200126DB
:10DDE0008640114631420FD0DF683946314223D098
:10DDF0002946B743DF60284E8700BE193768AF4316
:10DE0000376037680F433760401C2028E7D30098FD
:10DE10009968164686433140009E58681640304047
:10DE200002460A4301D01A699047641CE4B21B48B9
:10DE300041788C42C3D3F8BD012149043743D9E767
:10DE400010B5002903D08A070024002A01D007203A
:10DE500010BD124A0B46516010701421547041439A
:10DE60001846946001F0B1FA00200D49C043886063
:10DE70000C48402101600C4A1068FF231B049843A2
:10DE80000B041843106009480160002010BD000019
:10DE90000005005040610040000700507824002039
:10DEA0000063004080E200E004E400E000E100E004
:10DEB00010B50446002A02D01088002210E00A485B
:10DEC000FBE7030A00020343A05C584003061B0F54
:10DED00043401803584083B21806C00C5840521CE7
:10DEE0008A42EED310BD0000FFFF000010B50846C7
:10DEF0001146FEF7DDFD10BDF8B5394C207800283D
:10DF000037D02069002807D00026E068002805D017
:10DF10000025002E04D013E00126F6E70125F8E7DE
:10DF200068464EDF052806D0002806D02DA26921BC
:10DF3000FEF7BCFD04E0012602E021690098884755
:10DF4000002D12D1608869460880A06860DF05282E
:10DF500006D0002806D023A28021FEF7A7FD04E00A
:10DF6000012502E0E168A0688847002ED8D0002D86
:10DF7000CFD0F8BD70B5002901D08C0701D00720A3
:10DF800070BD174C0125A16062802449636010DFD9
:10DF90000028F5D12570162023DF70BD002803D09E
:10DFA0000F49C860002070470E207047002803D03A
:10DFB0000B490861002070470E20704710B50848D3
:10DFC0004068002808D08047002804D0FF2105A21F
:10DFD0003331FEF76BFD10BDFFF78EFF10BD000063
:10DFE000842400202E2E5C2E2E5C2E2E5C2E2E5C89
:10DFF0002E2E5C536F757263655C73645F636F6D27
:10E000006D6F6E5C736F66746465766963655F6877
:10E01000616E646C65722E6300000000EDDE03002B
:10E0200018225043F94A0021801801718160416132
:10E03000012281610261C160704770B5F34E182200
:10E040003078F34C50438219121D13780F21106958
:10E05000E568042B02D0022B0DD024E00121090732
:10E06000096989B201F0C4F9401950DF01001AD1E1
:10E07000E068401C14E051699368526840194919DE
:10E08000521B01251818AD02AA4202D2920851DF94
:10E0900002E0FF22013251DF010004D1E0684019A3
:10E0A000E0600120B070084670BDF8B5D74C054659
:10E0B000A778264604207678002F01D1002E17D0AD
:10E0C0000A2E28D020788019C0B20A2801D30A3835
:10E0D000C0B21826704300190571826106C98360B9
:10E0E000426101610699C1606078401C607011E076
:10E0F000002020702571A26103C9A36061612061C5
:10E100000698E06001206070FFF797FF002801D0BB
:10E11000112800D10020F8BD38B50246BB481823AD
:10E1200001785943081803690179022B0CD0142493
:10E130006343B64CF434E458042909D0836800934F
:10E1400083691030A04738BDB14B10331C68F3E72A
:10E150000023F4E710B5AD4902468B780020012B6F
:10E160001CD100238B70022A03D0032A16D10D2064
:10E1700012E00A7818235A435118091D0A78042A14
:10E1800004D1A34A4968D268914201D8FFF7C4FF7D
:10E1900000F0A8F9002801D0FFF7BEFF10BD70B550
:10E1A00000249B4D9948EC600470447084702646AE
:10E1B0003046FFF735FF761C0A2EF9D301210907F7
:10E1C0006C6048690969401E89B24843EC60A860E8
:10E1D0008E48F430046084600461C4608C48103060
:10E1E0000460848001202870002070BDF0B5884D47
:10E1F0002A78002A1DD000281DD000291BD00268D3
:10E20000002A18D001242407426823699BB29A424D
:10E210000DD8102A0BD38368002B08D05343AA686B
:10E2200066699B182769BFB27E43B34205D90720B0
:10E23000F0BD0820F0BD0E20F0BD6B68012B1CD096
:10E240000B604A60194614256943704DF4354E1928
:10E25000726007686F504168B1608168F160416821
:10E260008068002541436D1C2069ADB280B28842B0
:10E2700005D2206980B2091A02E00420F0BD002115
:10E28000206980B28218206980B28842EBD9604848
:10E290005B1C8260356143600020F0BDF8B5054627
:10E2A0005B481F46007814460E46002807D0002E13
:10E2B00007D0002D05D02868002818D103E00820D9
:10E2C000F8BD0E20F8BD5148F430016800290ED089
:10E2D000C268816840684A4310186A68904206D94B
:10E2E000002C04D0A14202D3E019884201D90720B2
:10E2F000F8BD304600F0F0F800280CD0F01900F01E
:10E30000EBF8002807D02346324629460220009722
:10E31000FFF7CBFEF8BD1020F8BDF8B507463C4826
:10E320001D46007816460C46002807D0002C07D062
:10E33000002F05D02068002818D103E00820F8BD80
:10E340000E20F8BD3148F430016800290ED0C268B3
:10E35000816840684A4310186268904206D9002ECE
:10E3600004D0B14202D37019884201D90720F8BD08
:10E37000384600F0B1F800280CD0781900F0ACF85D
:10E38000002807D0606832464119384600F0BEFFC9
:10E390000020F8BD1020F8BD38B51D4909780029C6
:10E3A00005D0002805D00168002912D103E008201B
:10E3B00038BD0E2038BD154A0021F4321368002BF9
:10E3C00007D09468D368634354681B194468A34218
:10E3D00001D8072038BD13690091014600220420AE
:10E3E000FFF763FE38BD0A4A1278002A12D00028CF
:10E3F00012D0002910D00268002A0DD0044A103231
:10E400001368002B0AD00420704700003829002030
:10E41000982400200820F7E70E20F5E702230B6080
:10E42000006810600020EFE7F8B505463F481E463B
:10E43000007817460C46002807D0002C07D0002D86
:10E4400005D0286802281BD103E00820F8BD0E2063
:10E45000F8BD364810300068002811D0084600F09A
:10E460003BF800280ED0A01900F036F8002809D09B
:10E470003B462246294602200096FFF716FEF8BDCD
:10E480000720F8BD1020F8BD38B5044627480A46D5
:10E490000078002805D0002C05D02068022819D16A
:10E4A00003E0082038BD0E2038BD20481030006839
:10E4B00000280FD001200007006981B2501E00F033
:10E4C00097FF0021431C0A46009121460420FFF7D4
:10E4D000ECFD38BD072038BD800701D0002093E750
:10E4E000012091E770B5124D182128780F4C414357
:10E4F00049198968E268914209D8FFF791FD002027
:10E50000E0606878401E68702878401C2870687841
:10E510000024002807D0FFF790FD040003D0112C41
:10E5200001D0FFF7F9FD204670BD000098240020BF
:10E5300038290020184A0221516018490B68002B25
:10E54000FCD0906008680028FCD00020506008686B
:10E550000028FCD0704770B50C460546104E00E010
:10E560003DDF30780028FBD10B48012141600B4A88
:10E5700011680029FCD02C6011680029FCD0002112
:10E58000416010680028FCD070BD10B5FFF7E3FFB4
:10E59000002010BDCEE7000000E5014000E401408E
:10E5A000B02400204E48002101704F484D4A0260BF
:10E5B0008160C1600161022241614260816108465F
:10E5C000704710B500291FD000220A60464A5368E0
:10E5D000002B1DD04B24E400A04217D85B1E5360D3
:10E5E000D0689723401CD06010699B001468434397
:10E5F000E3180B6001210C46936984402343814357
:10E6000093610020116110BD0E2010BD0C2010BDC3
:10E61000042010BDF0B5344B8446996800292BD0F6
:10E620005A691020511AC907C90F96461D680A4633
:10E6300001279726B6004E43AE19664506D13D46E2
:10E640009C698D406C4000209C6104E00E46394678
:10E65000B1438E45EDD13D469C698D43394691408D
:10E660000C420AD19968002907D0491E996059685F
:10E670002A46491C5960F1E70420F0BD1A4A0121DD
:10E6800013691268994397239B0059431B1FC918AC
:10E6900050500020704770B500281CD000291AD0B7
:10E6A000114AD368002B18D05B1ED360936897265D
:10E6B0005B1C93605369B6001D4614687343E618EB
:10E6C00006604B20C0001818205808600120A8439D
:10E6D0005061002070BD0E2070BD042070BD000090
:10E6E000B1240020602A0020182F002010B5002837
:10E6F0000BD0FE48FE49808888420FD0132176DF78
:10E7000000280BD0FBA2702106E00846FFF782FF2D
:10E71000002803D0F7A27621FEF7C8F910BD08281B
:10E720000CD004DC002807D006280FD108E00B2805
:10E730000AD00C280AD105E001207047022070475A
:10E740000320704704207047042901D00620704739
:10E750000520704710B50A46044603211046FFF70E
:10E76000DEFF024603212046FEF7CAFC002803D044
:10E77000E0A2B821FEF79AF910BDF0B50546087978
:10E780000E4685B081070AD0032211462846FEF7BF
:10E79000B7FC002821D0FF21D6A2253146E0D3497D
:10E7A00000901031FFF70DFF010013D1CF4CB1687D
:10E7B000009A206900F0AAFD0098FFF75FFF00288B
:10E7C00001D0014606E0C94869461030FFF763FFF3
:10E7D000010004D02846FFF7BDFF05B0F0BD00984A
:10E7E00080080290032001902069039001A8FEF7A1
:10E7F000B8FA07000CD0092F1BD02069FFF70AFFD9
:10E80000002803D001462846FFF7A4FF3946E1E778
:10E810003079E18801224018E08003212846FEF784
:10E820006FFC0028D9D0FF21B2A25531FEF73EF986
:10E83000D3E73079E188401881B2E1806078002820
:10E84000CBD06089401E0004000C6081C5D12846F1
:10E85000FEF78DFD002804D0FF21A6A26631FEF749
:10E8600025F920896081B8E710B5FF21A1A2A13167
:10E87000FEF71CF910BD10B59C4C9D49A08888423C
:10E8800009D0132176DF002815D0C72199A289006D
:10E89000FEF70CF90FE0A07800280CD074DF0028F8
:10E8A00003D094A29949FEF701F901209849800408
:10E8B000C8600020A07000F06AFA002804D09349D4
:10E8C0008CA2FA31FEF7F2F8002010BD70B50D6889
:10E8D00004460120854A2B0000F06BFE0A333032DB
:10E8E000061624464B354F23FEF797FA0421FFF70F
:10E8F00016FF024604212046FEF702FC002810D035
:10E90000FF217CA2D33141E0FFF7B5FF002804D0FE
:10E91000FF2178A2D931FEF7C9F8FEF7A4FA002842
:10E9200009D170BDFFF7A7FF002804D0FF2171A215
:10E93000E531FEF7BBF8FEF7C8FA70BD022000E033
:10E940000320D06070BDD2682046012A06D0022A7A
:10E9500007D0032AF6D1FFF710FF70BD00F0F6F8DC
:10E9600070BD00F01CF970BD507088881081508116
:10E9700070BD00205070108170BDD1882046FEF718
:10E98000BFFC0028F8D061495AA22539FEF78EF85D
:10E9900070BD10B5554CA07800280DD15D4873DFCF
:10E9A000002804D0594953A21239FEF77FF80120FC
:10E9B000574A81049160A07010BD70B54B4C05881A
:10E9C000A388132D2CD00ADC534A5149102D18D09E
:10E9D000112D15D1CA60207800281BD01CE0522DC3
:10E9E00029D0552D0CD18079002809D11321184642
:10E9F00076DF002804D045493EA23731FEF756F8AD
:10EA000070BD8A6001229204CA608088A0800020C4
:10EA1000A07070BDFFF7BDFF0020C043A08070BD97
:10EA2000324A1846143200217FDF0028F7D03749D8
:10EA300030A22F31E2E7002211461846A9DF002854
:10EA4000EDD04D212BA2C900D8E710B5044600F047
:10EA5000CFF9304821461430FEF718FC2046FFF766
:10EA6000ACFF10BD10B52D2122A20901FEF71EF842
:10EA700010BD10B51D4888B00024C4602748FFF7BA
:10EA80008DFA002860D12648FEF74FF9FFF78AFD7E
:10EA9000002859D100F0B4F8224800902248019093
:10EAA0001C4869461430FEF7B7FB002804D017490C
:10EAB00010A2B831FDF7FAFF00F0C6F81C21684635
:10EAC00000F083FC1948019001208003029000941B
:10EAD000032168460173C4810474154806900594A7
:10EAE000684600F030F9002829D023E0B424002043
:10EAF000FFFF00002E2E5C6466755F7472616E739A
:10EB0000706F72745F626C652E6300002B020000F0
:10EB100000050050342F0020000008004BEA0300DD
:10EB2000EDE60300CDE8030065EA0300CD0C00002C
:10EB300069E80300FF21674AB831FDF7B7FF00F02D
:10EB4000B8F8FFF726FF002008B010BD70B50546E5
:10EB50000879042809D0032201212846FEF7D0FABB
:10EB600000281BD05B4ACC2116E08C68204600F0C0
:10EB70002EFCE1780002000A09060843FEF7D8F8E7
:10EB80000121FFF7CCFD024601212846FEF7B8FA25
:10EB9000002803D04F4ADD21FDF788FF70BDFEB588
:10EBA00004460120009088680290087900228307BB
:10EBB0000FD08007800F0422121A0020034606E0BF
:10EBC0000E79029D3618B600401CAB51C0B290427F
:10EBD000F6D308798018800801906846FEF7F8F8A7
:10EBE0000221FFF79CFD024602212046FEF788FA2B
:10EBF000002804D0FF21374A1031FDF757FFFEBD32
:10EC00000EB5112069460872072233A102A87CDFE5
:10EC1000002803D02F4A3249FDF748FF002000901A
:10EC20000922694601900A800C224A808880FF20D0
:10EC30009130C88068467ADF002804D0A721254A91
:10EC40008900FDF733FF0EBD10B592B0062168466E
:10EC500001712448017968468170234901803C2173
:10EC600002A800F0B2FB0220029000246846447320
:10EC70000121018201A80590684681830890214600
:10EC800002A800F025FA002804D01549114A2831BD
:10EC9000FDF70CFF13481421143800F096FB1148BF
:10ECA000143804704460047228210182448212B036
:10ECB00010BD0E491E200880887801221043E122F1
:10ECC00010400C30DF22104088700720C8701020E0
:10ECD00008717047F4EA0300446675546172670076
:10ECE00092020000482F002030150000C8240020A8
:10ECF00038B56749674A488890420FD04A78664CD1
:10ED0000521CD2B24A70237B934208D3083175DF7C
:10ED1000002803D0A169002900D0884738BD00250C
:10ED20004D70217C002907D03B2176DF002803D0DD
:10ED3000A169002900D0884761690029EED06846A2
:10ED40000095884738BD70B5054601461C225248DB
:10ED5000FDF720FE4E4C002626702968002907D0BA
:10ED60000822A01800F0D2FA204608307ADF02E02C
:10ED7000474808307BDF002808D1401E60804448A7
:10ED80006670464A0021001DFEF72DFD70BD10B5CE
:10ED90003F484068FEF7D4FD10BDF8B53C48103040
:10EDA00000F069F800263A4D3B4C002806D0616916
:10EDB000002919D001200090684614E02878002826
:10EDC00004D0616900290FD00096F5E76878002823
:10EDD0000CD0A16800226868FEF74CFD002803D023
:10EDE000A169002900D088472E70F8BD6168F1E75D
:10EDF000F8B5294C02880027254DE689102A18D03D
:10EE000029464968112A21D0122A2DD0502A0FD123
:10EE1000801D0288B2420BD1028B022A08D1C27E29
:10EE2000837E10021843C007C00F13D0FFF7B5FF51
:10EE3000F8BD818869800146154808220E311030DE
:10EE400000F064FA6F70002EF0D0F8BD0020C043CF
:10EE500068806F700846FEF773FD0028F5D0A16941
:10EE60000029F2D08847F8BD811D094808221030DA
:10EE700000F04CFADAE741880548083002889142F0
:10EE800004D34088814201D8012070470020704798
:10EE9000D0240020FFFF0000702F0020F1EC0300C1
:10EEA000FFB583B0074600200C9C864626780546B1
:10EEB0003AE07868A90041180A8868468280498843
:10EEC000C1800022694601A864DF002810D168468D
:10EED00001780598814226D17046002801D0002291
:10EEE00000E002222078891841181F2902D90C203D
:10EEF00007B0F0BD7146002908D1401CC0B2411CCA
:10EF0000069B049A21701A5401208646217806989F
:10EF10000A18694601A864DF0028E9D1694620780B
:10EF20000978401820706D1C3888A842C1DC7046F2
:10EF3000002804D020780699801B401E88550020A8
:10EF4000D6E7F8B51546069C1E46074602220094F1
:10EF5000FFF7A6FF002806D133461022294638467F
:10EF60000094FFF79DFFF8BDF7B582B00026054677
:10EF7000167000681446002805D02846039900F052
:10EF8000DFF806002DD1687900281BD02078039F78
:10EF9000001D1F2824D8684679DF002821D1217858
:10EFA0000322481C20707A5421781922481C2070B2
:10EFB0007A542078C1196846008800F0BCF821789E
:10EFC000401820702989002923D001208446EA684E
:10EFD0000398002A07D0227853189B1C1F2B04D9B2
:10EFE0000C2005B0F0BD0720FBE71346521C491C5E
:10EFF0002270C15422786746511C217087542378AF
:10F000002A891818E96800F081F92078297A4018CF
:10F0100020702869002815D00021415622788C469E
:10F02000D01C03991F28DBD8501C022320708B545E
:10F0300022780A23501C20708B5420786246431C8F
:10F0400023700A54A88A002809D028460094062272
:10F0500002211430039BFFF774FF0600C1D1A88B77
:10F06000002809D028460094072203211C30039B66
:10F07000FFF767FF0600B4D1A88C002809D0284606
:10F080000094152214212430039BFFF75AFF060039
:10F09000A7D1E86A002805D02246039900F085F838
:10F0A00006009ED1286B002805D02246039900F067
:10F0B000BBF8060095D13820405D002806D02246D6
:10F0C0002846039900F0E2F806008AD1304688E726
:10F0D00070B50D4692B000216A4611700724117177
:10F0E000002812D00189002905D0C168002902D06A
:10F0F0000978490702D4204612B070BD02A9FFF773
:10F1000033FF0028F8D102AE00E00026002D0BD01E
:10F1100028890028EFD101AA0AA92846FFF724FF71
:10F120000028E9D10AAA00E00022684603790178A4
:10F13000304672DFE0E70870000A4870022070472E
:10F14000F8B514780746A01C15460E461F2803D8AC
:10F150003879801C1F2801D90C20F8BD1D20001B08
:10F1600080B26946864608803019801C7DDF002801
:10F17000F3D13868022805D168460088704501D867
:10F18000092107E038790821002801D0704501D90C
:10F1900068460088421C3255641CE2B2B15429789A
:10F1A000801C081828700020F8BDF8B50D461178AD
:10F1B0000646881D14461F2801D90C20F8BD338847
:10F1C0000720062BFAD31927FF01BB4202D94E4A6A
:10F1D0009342F3D17288062AF0D3BA4202D94A4F39
:10F1E000BA42EBD1484FBB4203D0BA4201D093425E
:10F1F000E4D8481C052220706A5420781222411C51
:10F2000021702A54207841193088FFF794FF217823
:10F210004018C0B2207041197088FFF78CFF217828
:10F22000401820700020F8BD70B5054600790E46E4
:10F23000801C1446C0B21178821C8A181F2A01D97A
:10F240000C2070BD0A46491C401C2170B054207827
:10F25000FF22411C21703254207881192888FFF741
:10F260006AFF21784018C0B22070AA88002A09D00D
:10F27000A968002908D0801900F048F82078297979
:10F2800040182070002070BD072070BDF7B582B017
:10F2900002981446406B0F46002832D00298002591
:10F2A0002030009028E00298416B0C2068430E1833
:10F2B000217830794A1CC01C22707854217816229B
:10F2C000481C20707A542078C1193088FFF733FF2A
:10F2D00021784018C0B22070B288002A09D0B168E5
:10F2E00000290ED0C01900F011F8207831794018AB
:10F2F00020706D1C0098EDB2007EA842D3D800208B
:10F300006FE607206DE60000FFFF0000F8B5042A55
:10F310002CD3830712D00B78491C0370401C521E5B
:10F3200083070BD00B78491C0370401C521E8307C7
:10F3300004D00B78491C0370401C521E8B079B0F96
:10F3400005D0C91ADF002023DE1B08C90AE0FDF73B
:10F3500021FBF8BD1D4608C9FD401C46B4402C43A6
:10F3600010C0121F042AF5D2F308C91A521EF0D495
:10F370000B78491C0370401C521EEAD40B78491CC0
:10F380000370401C521EE4D409780170F8BD01E0FE
:10F3900004C0091F0429FBD28B0701D50280801C01
:10F3A000C90700D00270704700290BD0C30702D0F4
:10F3B0000270401C491E022904D3830702D5028033
:10F3C000801C891EE3E70022EEE70022DFE70378D6
:10F3D000C2781946437812061B0219438378C07815
:10F3E0001B04194311430902090A00060843704728
:10F3F000002203098B422CD3030A8B4211D3002332
:10F400009C464EE003460B433CD4002243088B420B
:10F4100031D303098B421CD3030A8B4201D3944698
:10F420003FE0C3098B4201D3CB01C01A524183098B
:10F430008B4201D38B01C01A524143098B4201D345
:10F440004B01C01A524103098B4201D30B01C01A70
:10F450005241C3088B4201D3CB00C01A52418308EA
:10F460008B4201D38B00C01A524143088B4201D317
:10F470004B00C01A5241411A00D201465241104677
:10F4800070475DE0CA0F00D04942031000D34042EC
:10F49000534000229C4603098B422DD3030A8B4222
:10F4A00012D3FC22890112BA030A8B420CD38901C0
:10F4B00092118B4208D3890192118B4204D38901A6
:10F4C0003AD0921100E08909C3098B4201D3CB01E4
:10F4D000C01A524183098B4201D38B01C01A524199
:10F4E00043098B4201D34B01C01A524103098B429D
:10F4F00001D30B01C01A5241C3088B4201D3CB0088
:10F50000C01A524183088B4201D38B00C01A52416A
:10F51000D9D243088B4201D34B00C01A5241411A41
:10F5200000D20146634652415B10104601D340426F
:10F53000002B00D54942704763465B1000D3404220
:10F5400001B50020C046C04602BD704770477047F5
:10F55000754600F023F8AE46050069465346C008DC
:10F56000C000854618B020B5FDF78CFA60BC0027B6
:10F570004908B6460026C0C5C0C5C0C5C0C5C0C57F
:10F58000C0C5C0C5C0C5403D49008D467047044652
:10F59000C046C0462046FDF7E0F90000004870472D
:10F5A0008C2F002001491820ABBEFEE72600020088
:10F5B000704730B47446641E2578641CAB4200D298
:10F5C0001D46635D5B00E31830BC184723D1BCEADD
:10F5D0005F782315DEEF121200000000FCF5030037
:10F5E00000240020E800000004C90300E4F6030042
:10F5F000E82400200817000020C903000024F400BC
:10F6000000000000000000000000000000000000FA
:10F6100000000000000000000000000000000000EA
:10F6200000000000000000000000000000000000DA
:10F6300000000000000000000000000000000000CA
:10F6400000000000000000000000000000000000BA
:10F6500000000000000000000000000000000000AA
:10F66000000000000000000000000000000000009A
:10F67000000000000000000000000000000000008A
:10F68000000000000000000000000000000000007A
:10F69000000000000000000000000000000000006A
:10F6A000000000000000000000000000000000005A
:10F6B00000000000FFFF000000000000000000004C
:10F6C000000000000000000000000000000000003A
:10F6D000000000000000000000000000000000002A
:04F6E0000000000026
:020000041000EA
:0410140000C803000D
:040000050003C8C16B
:00000001FF
